:020000040800F2
:1000000028060020D1000008711700089F1500087D
:1000100000000000000000000000000000000000E0
:10002000000000000000000000000000BB170008F6
:100030000000000000000000B9170008BD1700080C
:10004000E3000008E3000008E3000008E300000804
:10005000E3000008E3000008E3000008E3000008F4
:10006000E3000008E3000008E9010008E3000008DD
:10007000E3000008E3000008E3000008E3000008D4
:10008000E3000008E3000008E3000008E3000008C4
:10009000E3000008E3000008E3000008E3000008B4
:1000A000E3000008E3000008E3000008951E0008D4
:1000B000E3000008E3000008E30000080348854669
:1000C00000F04EF800480047C51E00082806002032
:1000D0000448804704480047FEE7FEE7FEE7FEE7E6
:1000E000FEE7FEE749180008BD00000830B50B46E2
:1000F000014600202022012409E00D46D5409D4202
:1001000005D31D469540491B254695404019154687
:10011000521E002DF1DC30BD03460B439B0703D07C
:1001200009E008C9121F08C0042AFAD203E00B78BC
:100130000370401C491C521EF9D27047D2B201E034
:100140000270401C491EFBD270470022F6E710B532
:1001500013460A4604461946FFF7F0FF204610BD35
:10016000064C0125064E05E0E36807CC2B430C3C0A
:1001700098471034B442F7D3FFF7A4FFF8250008DE
:100180001826000810B5446A204600F08DF80120BA
:10019000207110BD10B5446A204600F065F80120BA
:1001A000207110BD10B5446A206904210843206104
:1001B000204600F07BF80120207110BD10B5446A84
:1001C0002069042108432061204600F04FF80120F7
:1001D000207110BD10B5406A00F067F810BD10B571
:1001E000406A00F042F810BD10B5024800F094F9E2
:1001F00010BD00002400002010B504460C49206802
:10020000884209D20B4940181421FFF76FFF800084
:1002100020640948E06310BD054949424018142193
:10022000FFF764FF8000206401480838E06310BDD8
:1002300008040240F8FFFDBF0000024030B5056C25
:100240000124AC40C56B6C60046863604368102B8C
:1002500004D0036899600068C26030BD03689A608A
:100260000068C16030BD704770477047704700003C
:1002700070B54379012B13D0012646710223037117
:1002800003681D68074C9440A5430C6849680C43FB
:1002900094402C431C60067100214171002070BD08
:1002A000022070BDFE0F000070477047704770B5A8
:1002B0000446002C04D020790025002802D005E057
:1002C000012070BD6571204600F008F80220207101
:1002D000256101202071002070BD0000F0B587B0BD
:1002E0000446142102A8FFF730FF20492068884205
:1002F0003AD11F48C26941040A43C261C2690A4037
:100300000192426909130A43426140690840019021
:10031000102702970320039000250495092002A9C5
:10032000C00600F0C3F9144E124830607760B56023
:100330008020F06047003761C00070612020B0610C
:10034000F561304600F03EF9002801D0FFF78BFF41
:1003500008485030816A0F22120291438162816AFB
:1003600039438162A660746207B0F0BD007400403A
:1003700000100240300002402400002070B5427995
:10038000012A12D001234371022404710268156806
:100390001E468E4035431560002908D001680A6862
:1003A0009202120F0F2A0CD00EE0022070BD0168DD
:1003B0000A689206120F0F2A06D14A681A434A6049
:1003C00002E04A6822434A60037100214171002023
:1003D00070BD0000F8B5044606980D4616469C46CA
:1003E0000022617901291BD0012161710221217153
:1003F000002D17D0E36830499962E3682F49D9622C
:10040000E3682F49196321680F6801231B071F4305
:100410000F60002825D0042826D0082829D126E0FE
:100420000220F8BDA36827499962A3682649D962CA
:10043000A3682649196321680F6801231B031F4322
:100440000F60002804D0042805D0082811D105E049
:10045000226808320DE022680C320AE0226810326D
:1004600007E02268143204E02268183201E02268B2
:100470001C32002D13D02068016801235B0719434B
:10048000016063463146E06800F0C8F82068026801
:100490000121A9400A43026000206071F8BD206874
:1004A000016801235B031943016063463146A0687C
:1004B00000F0B4F8EAE7000095010008DF01000849
:1004C000BD01000885010008D5010008A50100084C
:1004D00070B50024014620314A78022A03D0042155
:1004E0008163012416E0026813680E25AB43136094
:1004F000026813685B085B0013600125036C2A46E1
:100500009A40C36B5A604D7000220A70416B0029FB
:1005100000D08847204670BDF0B4C16B0B680168FD
:100520000C680422056C1646AE401E4210D06607C9
:100530000ED50B689B0602D40B6893430B60016CCD
:100540008A40C16B4A60C16A002938D0F0BC0847B4
:1005500002273E46AE4002461E402032002E15D0F5
:10056000A60713D50B689B0605D40B680A24A34382
:100570000B6001215170016C8F40C16B4F600021F5
:100580001170816A00291AD0F0BC08470826AE40D5
:100590001E4214D0230712D50B680E24A3430B6010
:1005A0000121046C0B46A340C46B636081635170EE
:1005B00000211170016B002901D0F0BC0847F0BC8C
:1005C0007047000070B50446002C23D00220254659
:1005D00020356870206801680F4A1140A36862687E
:1005E00026691A43E36833431A4363691A43A369CC
:1005F0001A43E3691A430A4302602046FFF7FCFDF1
:100600000020A062E06220636063A0630121697042
:10061000287070BD012070BD0FC0FFFFF8B5044603
:100620008C460025204620300178012909D001267A
:10063000067047780021012F05D001700225284659
:10064000F8BD0220F8BD02274770A1632068016849
:1006500049084900016061462046FFF7EFFDE06A66
:10066000002805D0206801680E221143016009E0CE
:10067000206801680A221143016020680168042291
:10068000914301602068016831430160D7E731B5CB
:1006900000F0B8F80546009C601C00D0641C00F017
:1006A000B1F8401BA042FAD338BD0000F8B50022D3
:1006B00093E001249440A4462340002B7ED04C6854
:1006C000022C01D0122C0CD1D408A40027183D6AAA
:1006D0005407E40E0F26A640B5430E69A6402E43EC
:1006E0003E62076855000324AC40A7430E79B60765
:1006F000B60FAE403E4306604E68012E05D0022E76
:1007000003D0112E01D0122E0ED18768A743CE68D8
:10071000AE403E43866047686646B7430E79F606AC
:10072000F60F96403E434660C668A6438C68AC40D0
:100730003443C4604C68E4004ED52B4CA5690126B7
:100740003543A561A469344000949508274CAD0059
:100750002F19BD689407240F0F26A640B54309261C
:10076000F606B04201D1002614E0214EB04201D17C
:1007700001260FE01F4EB04201D102260AE01E4EB4
:10078000B04201D1032605E01C4EB04201D104263F
:1007900000E00526A6402E43BE60194D2C689C4300
:1007A0004E68F60300D51C432C606C689C434E6871
:1007B000B60300D51C436C60AC6800E00CE09C43C1
:1007C0004E68F60200D51C43AC60EC689C434E6852
:1007D000B60200D51C43EC60521C0B681C46D4408A
:1007E00000D066E7F8BD00000010024000000140A4
:1007F0000004004800080048000C004800100048B1
:100800000004014001480068704700000800002013
:1008100002480168491C0160704700000800002080
:1008200010B506480168102211430160002000F055
:1008300007F800F017F8002010BD0000002002406B
:1008400010B5044600F07EF97D21C900FFF74EFC8B
:1008500000F016FC00222146501E00F021F8002076
:1008600010BD000008B5084881690122114381616B
:10087000816911400091C26901040A43C261C069E3
:100880000840009008BD000000100240C106C90EDB
:1008900001208840014908607047000000E100E045
:1008A00010B500F067FF10BDF8B504462068454D4F
:1008B000C00355D50026E869C00007D4E9692804BB
:1008C0000143E961E9690140009101263E48016860
:1008D000C90512D40168821511430160FFF792FF28
:1008E000074606E0FFF78EFFC01B642801D90320EE
:1008F000F8BD35480068C005F4D5286A032109020F
:10090000084000281FD062680A4082421BD0286A33
:1009100088432A6A012109040A432A622A6A8A430F
:100920002A622862C0070ED0FFF76CFF074607E077
:10093000FFF768FFC11B2548814201D90320F8BD9C
:10094000286A8007F4D5286A032109028843616870
:1009500008432862012E03D1E96930078143E96128
:100960002078C00705D0286BA16880088000084364
:1009700028632078800706D5286B03210904884363
:10098000E168084328632068400306D5286B0321EB
:10099000890488432169084328632078800605D5A7
:1009A000286B10218843616908432863208840052B
:1009B00005D5286B40218843A1690843286300209E
:1009C000F8BD0000001002400070004088130000D5
:1009D000F8B505460E4656480068C007C00FB0423D
:1009E0000CD253480168490849003143016000684E
:1009F000C007C00FB04201D00120F8BD28784D4F8C
:100A0000800705D57868F0218843A9680843786095
:100A10002878C00760D06868012808D002280BD069
:100A200003280ED03968890710D40120F8BD396831
:100A300089030BD40120F8BD3968890106D401204F
:100A4000F8BD796BC90301D40120F8BD7968890824
:100A5000890001437960FFF7D5FE044668680128E4
:100A60000CD0022818D0032824D031E0FFF7CAFEAA
:100A7000011B3148814201D90320F8BD7868000785
:100A8000800F0128F2D127E0FFF7BCFE011B2A48A6
:100A9000814201D90320F8BD78680007800F022841
:100AA000F2D119E0FFF7AEFE011B2348814201D9C4
:100AB0000320F8BD78680007800F0328F2D10BE00F
:100AC000FFF7A0FE011B1C48814201D90320F8BD9D
:100AD00078680007800FF3D115480168C907C90F6E
:100AE000B1420BD9016849084900314301600068EF
:100AF000C007C00FB04201D00120F8BD28784007E0
:100B000006D57868072109028843E96808437860B8
:100B100000F02EF87968094A0906090F515CC840AF
:100B2000074908600020FFF78BFE0020F8BD000099
:100B3000002002400010024088130000E025000859
:100B40000C00002001480068704700000C000020E5
:100B500000B5FFF7F7FF04494968044A4905490F02
:100B6000515CC84000BD000000100240F0250008A4
:100B700030B589B01CA001460EC9C06805AC0EC4D2
:100B800008901DA001460EC9C06801AC0EC40490B7
:100B90001D4D6A680C20114601401C48042905D0EF
:100BA0001B4B082904D00C2900D1184609B030BDD0
:100BB0009102090F05AC645CE96A01AD0907090FF0
:100BC000695CD203920F022A05D0032A07D0FFF7EF
:100BD0008DFA6043EAE7FFF789FA6043E6E71846D3
:100BE000FFF784FA6043E1E70203040506070809FA
:100BF0000A0B0C0D0E0F1010010203040506070866
:100C0000090A0B0C0D0E0F100010024000127A00A2
:100C1000006CDC02FEB504462078F84EF84DC007A3
:100C200057D068680007800F01281FD06868000748
:100C3000800F022804D16868C003800F022815D0F5
:100C4000606801281AD00121890400281AD00528DB
:100C50001FD02868B04328602868884328606068EF
:100C6000002828D0FFF7CEFD074620E02868800343
:100C70002FD5606800282CD10120FEBD28683043A4
:100C80002860ECE72868B04328602868884328601B
:100C9000E5E7286808432860286830432860DEE7D5
:100CA000FFF7B0FDC01B642801D90320FEBD2868F2
:100CB0008003F5D50DE0FFF7A5FD074606E0FFF739
:100CC000A1FDC01B642801D90320FEBD2868800354
:100CD000F5D4207880074CD568680007800F14D0C1
:100CE00068680007800F022804D16868C003800F7D
:100CF00001280AD0E068002829D02868012108438B
:100D00002860FFF77FFD074616E02868800704D5B6
:100D1000E068012801D00120FEBD2868F821884341
:100D20002169C9000843286023E0FFF76BFDC01B61
:100D3000022801D90320FEBD28688007F5D5286860
:100D4000F82188432169C9000843286011E0286818
:100D5000400840002860FFF755FD074606E0FFF712
:100D600051FDC01B022801D90320FEBD2868800761
:100D7000F5D42078000727D5E069002812D0686AEA
:100D8000012108436862FFF73DFD074606E0FFF7D3
:100D900039FDC01B022801D90320FEBD686A800707
:100DA000F5D511E0686A400840006862FFF72AFD47
:100DB000074606E0FFF726FDC01B022801D90320E5
:100DC000FEBD686A8007F5D4207804274007002814
:100DD00074DA00200190E869C00008D4E969B80617
:100DE0000143E961E96901400091012001908548D2
:100DF0000168C90513D40168821511430160FFF72A
:100E000001FD029007E0FFF7FDFC0299401A6428FB
:100E100001D90320FEBD7B480068C005F3D5A0685A
:100E2000012811D0002814D005281AD0286A4008BB
:100E300040002862286AB8432862A068002825D0AC
:100E4000FFF7E0FC02901DE0286A012108432862B8
:100E5000F3E7286A400840002862286AB8432862FD
:100E6000EBE7286A38432862286A01210843286290
:100E7000E3E7FFF7C7FC0299411A6348814201D9B1
:100E80000320FEBD286A8007F3D50FE0FFF7BAFC08
:100E9000029008E0FFF7B6FC0299411A5A488142D5
:100EA00001D90320FEBD286A8007F3D401980128E8
:100EB00004D1E869012109078843E8612078C00668
:100EC00041D5606901280CD0401D27D0686B38439C
:100ED0006863686B400840006863FFF793FC07464F
:100EE0002EE0686B38436863686B012108436863D0
:100EF000FFF788FC074606E0FFF784FCC01B0228CA
:100F000001D90320FEBD686B8007F5D5686BF82119
:100F10008843A169C9000843686314E0686BB8435B
:100F20006863686BF8218843A169C9000843686356
:100F300009E0FFF767FCC01B022801D90320FEBDB2
:100F4000686B8007F5D4207880063CD56868000778
:100F5000800F032813D068680007800F022804D18F
:100F60006868C003800F032809D0206A002819D0C0
:100F7000686B30436863FFF745FC06460EE0686B1C
:100F8000C00320D5206A01281DD00120FEBDFFF737
:100F900039FC801B022801D90320FEBD686BC00309
:100FA000F5D510E0686BB0436863FFF72BFC06468D
:100FB00006E0FFF727FC801B022801D90320FEBDB5
:100FC000686BC003F5D4606A002854D069680907CB
:100FD000890F022951D001273F06022806D0286830
:100FE000B8432860FFF70EFC044641E02868B84388
:100FF0002860FFF707FC06460FE000000000010034
:10100000001002400070004088130000FFF7FAFB58
:10101000801B022801D90320FEBD28688001F5D479
:10102000E86A216B000900010843E862A16AE06AEE
:10103000084369687B22D2039143084368602868AB
:1010400038432860FFF7DEFB044606E0FFF7DAFBD3
:10105000001B022801D90320FEBD28688001F5D5B8
:1010600009E0FFF7CFFB001B022801D90320FEBDDA
:1010700028688001F5D40020FEBD0120FEBD0000DF
:1010800010B50949401E884201D9012010BD074C06
:1010900060610321081F00F06DFB0020A0610720A4
:1010A0002061002010BD0000FFFFFF0000E000E015
:1010B00070B502462032137F012B1BD00124147718
:1010C0000223537703685D687026B5435D6003684B
:1010D0005D680E6835435D6003689D688026B54392
:1010E0009D600068836849680B43836054770020E3
:1010F000107770BD022070BD70B50446002C05D07D
:1011000025462035687F002802D006E0012070BD0A
:1011100000202877204600F00BF802206877211D78
:10112000206800F0BFFB01206877002070BD000040
:1011300008B5006801218907884207D10448C169C0
:1011400001221143C161C0691040009008BD000038
:10115000001002400222014620314A7700680368ED
:101160000122134303604A7700207047F8B5044614
:1011700025462035287F012817D001272F77022008
:101180006877206882687726B243FF231B029A4360
:1011900082600868502838D00EDC20285DD006DC3C
:1011A000002850D0102861D152E00220F8BD30282C
:1011B00058D040285AD13CE0602830D0702818D050
:1011C00001221203801A0ED090424FD1CB684A6898
:1011D0008968206800F0B0FB2068816801229203D2
:1011E0001143816042E020688168C908C9008160BC
:1011F0003CE0CB684A688968206800F09DFB206865
:101200008168B1433143816030E0CA684968206831
:1012100000F0A5FB5021206800F099FB26E0CA6889
:101220004968206800F0ACFB6021206800F08FFB6B
:101230001CE0CA684968206800F091FB40212068E2
:1012400000F085FB12E00021206800F080FB0DE03B
:101250001021206800F07BFB08E02021206800F0CE
:1012600076FB03E03021206800F071FB6F770020EF
:101270002877F8BD70477047F8B504462368D869E9
:10128000196805072D0F002D07D1820605D58A069E
:1012900003D5204600F052FCF8BD9A682027002DA7
:1012A00069D0D507ED0FFF2621360E402E4362D0C0
:1012B000C60706D0CE0504D501261E62E36E334371
:1012C000E366830708D5D30706D026680223336276
:1012D000E36E04263343E366430708D5D20706D0FE
:1012E000236804221A62E26E02231A43E2660207AE
:1012F00009D50A463A402A4305D0236808221A62D3
:10130000E36E1343E366E26E002AC5D0800604D57F
:10131000880602D5204600F011FCE06E000703D4D9
:1013200020688068400620D5204600F0EBFB20684E
:101330008168490615D58168402291438160606EBD
:1013400000280AD01B494163606EFFF7C1F80028EE
:10135000A2D0606E416B8847F8BD2046FFF78BFF37
:10136000F8BD2046FFF787FFF8BD2046FFF783FF53
:101370000020E066F8BDC5020CD552020AD5012056
:101380000005186220466030477287722046FFF7DA
:1013900071FFF8BD020605D50A0603D5204600F008
:1013A00013FDF8BD4006FCD54806FAD5204600F0EE
:1013B000B8FBF8BDF11A000870B50446002C05D042
:1013C00025466035687A002802D006E0012070BD0D
:1013D00000202872204600F029F824206872206836
:1013E0000168490849000160204600F0E7FB012838
:1013F00019D0606A002802D0204600F0D4FA206894
:1014000041680922D20291434160206881682A2202
:1014100091438160206801680122114301602046E8
:1014200000F026FB70BD012070BD000010B586B035
:101430000446142101A8FEF788FE17492068884257
:1014400027D116488269012189030A438261826992
:101450000A4000924269C9000A434261406908405B
:10146000009003204002019002200290002003908F
:101470000320049001200590092001A9C006FFF770
:1014800015F9002211461B20FFF70AFA1B20FFF76F
:10149000FDF906B010BD0000003801400010024008
:1014A00070B5034660339C7A202C01D0022070BDB9
:1014B00000290AD0002A08D0012584682D03AC42F7
:1014C00009D10669002E02D005E0012070BDCE07CB
:1014D00001D0012070BD1E7A012E0ED001261E7291
:1014E0004165014640310A834A83FF22AC4209D15B
:1014F0000469002C03D08A8310E0022070BD144AD6
:101500008A830BE07F25002C19D001221207944218
:1015100004D10269002A19D03F228A830021C166C2
:1015200022229A72197201688A6832438A600068BE
:101530000168FF22213211430160002070BD04695F
:10154000002C01D08D83E9E78A83E7E78D83E5E707
:10155000FF01000010B504460B4800780A2802D1AC
:1015600001200A49087001220749094800F07BFD63
:10157000012802D0012007490870012202490648CB
:10158000FFF78EFF10BD00000400002005000020C2
:101590001801002006000020A80000207047FEE788
:1015A0001CB50020009001900B480C4908600846CB
:1015B000FEF77DFE002801D0FEF755FE24200090A6
:1015C00000200190002269460448FEF751FE0028E1
:1015D00001D0FEF748FE1CBD007400401000002042
:1015E00008B500BF0A48406901210843084948611D
:1015F00008464069C007C00F009000BF00BF00222E
:1016000011460A20FFF74CF90A20FFF73FF908BD01
:101610000010024000B587B0142102A8FEF795FD26
:1016200000BF234840690121C9040843204948619B
:10163000084640690121C9040840019000BF00BF6D
:1016400000BF1B484069C900084319494861084662
:101650004069012189050840019000BF00BF00BF1B
:1016600013484069491108431149486108464069D7
:10167000012149040840019000BF00BF08110290F9
:101680000C4803900020049002A90B48FFF70EF8C5
:101690000C2002900220039000200490059001206D
:1016A000069002A90920C006FFF700F807B000BDA8
:1016B00000100240000021100008004800B587B06B
:1016C0000020039004900590069001900290012064
:1016D0008007154908606420486000211248816035
:1016E0000E21C160002101618161FFF705FD002825
:1016F00001D0FEF7B8FD01200003039003A90A48BA
:10170000FFF734FD002801D0FEF7ADFD2020019049
:101710000020029001A90448FFF7CAFC002801D06C
:10172000FEF7A1FD07B000BD6800002010B50E480F
:101730000E490860E1204002486000210B488160AA
:10174000C16001610C21416100218161C1610162BF
:101750000020064948620846FFF72EFE002801D007
:10176000FEF781FD10BD000000380140A8000020F8
:10177000704700008307FF22DB0E9A408907090E9D
:10178000994000280BDA0007000F08388308084842
:101790009B001818C36993430B43C36170478308C8
:1017A00004489B001818036893430B430360704779
:1017B00000ED00E000E400E07047704710B5FFF76F
:1017C00027F810BD00B599B034210CA8FEF7BDFC78
:1017D0000020089009900A900B901C2101A8FEF7A8
:1017E000B4FC02200C9001200F90102010900220D9
:1017F0001590810316910521C904179101211891B3
:101800000CA8FFF707FA002801D0FEF72CFD0720EF
:1018100008900220099000200A900B90012108A84E
:10182000FFF7D6F8002801D0FEF71DFD012001903A
:101830000020039001A8FFF737F8002801D0FEF739
:1018400012FD19B000BD00001248016801221143C9
:1018500001604168104A1140416001680F4A11401F
:1018600001600168012292049143016041683F22B6
:10187000120491434160C16A09090901C162016B07
:10188000074A11400163416B490849004163002147
:1018900081607047001002400CB8FF08FFFFF6FEA1
:1018A000ACFEF0FFF0B502681D4B0124A4071D4DEE
:1018B000984203D0A04201D0A84203D17026B2437F
:1018C0004E683243184E194F98420DD0A0420BD0AB
:1018D000A84209D0164CA04206D0B04204D0B8426B
:1018E00002D0144CA04204D103242402A243CC68A9
:1018F00022438024A2434C69224302608A68C26268
:101900000A688262984206D0B04204D0B84202D03F
:10191000084A904201D10969016301214161F0BD8A
:10192000002C014000040040004001400044014000
:10193000002000400048014030B58468FF252D029A
:10194000AC431B0213430B432343836030BD8268C7
:1019500070239A430A4307210A438260704730B5D7
:10196000036A046A6408640004628469F025AC4375
:10197000120122430A24A3430B438261036230BD58
:1019800030B5036A1024A34303628369046A0F25F8
:101990002D03AB4312031A43A0239C4309012143A7
:1019A0008261016230BD10B5818CC90707D0016822
:1019B0004A6801235B049A43836A1A434A60818C14
:1019C000890707D501684A6801231B049A43C36A43
:1019D0001A434A60818C490707D501684A68012388
:1019E0009B049A43036B1A434A60818C090707D50D
:1019F00001684A680123DB039A43436B1A434A6038
:101A0000818CC90607D501688A6801231B039A43A4
:101A1000836B1A438A60818C890607D501688A68BE
:101A200001235B039A43C36B1A438A60818C490686
:101A300012D501684B6801221205046C93432343BD
:101A40004B60016C914207D101684A6803235B0532
:101A50009A43436C1A434A60818C090607D5016892
:101A60004A680123DB04806C9A4302434A6010BD3C
:101A7000F8B504460025E566FEF7C4FE064618499B
:101A80002068884205D01749884202D0164988420A
:101A90001FD10068154F00070BD5012133460022E6
:101AA00049052046009700F0C3F9002801D0032023
:101AB000F8BD2068006840070BD50121334600229D
:101AC00089052046009700F0B3F9002801D00320D3
:101AD000F8BD202060346072A07225720020F8BD2D
:101AE000003801400044004000480040FFFFFF0173
:101AF00010B5406A0022014640314A834A82FFF70E
:101B0000BAFB10BD01680A68FF2321339A430A60BB
:101B1000016860308A68520852008A602021817210
:101B2000704710B501680A6840239A430A60202272
:101B300069210A54FFF732FD002010BD70B502463E
:101B40004032938B014660318D7A0C460168222D1C
:101B500005D08869082210438861022070BD898CF5
:101B6000012685683603B54202D10569002D0CD0E7
:101B70001940436D5D1C45651970518B491E090460
:101B8000090C518308D0002070BD456D1940298093
:101B9000416D891C4165F0E701680A68FF23213324
:101BA0009A430A6001688A68520852008A602021BC
:101BB000A172FFF7CFFC002070BD0000F8B504460D
:101BC000102000210026A3682269E5691343626999
:101BD0002A431343226815686F4F3D401D4315602B
:101BE0002268536803252D03AB43E5682B435360FC
:101BF000A369226A1343226895680B273F02BD43FD
:101C00001D439560654F2568654B0203BD4212D1A7
:101C10001B6B9B079B0F06D0012B08D0022B08D013
:101C2000032B4ED101E000204BE0022049E00420CC
:101C300047E0082045E05B4FBD4212D11B6B0327F4
:101C40003F043B4007D09B1A07D09B1A07D0934212
:101C500037D1022035E0002033E0042031E00820B5
:101C60002FE0514FBD4214D11B6B0327BF043B40F3
:101C700009D00127BF04DB1B07D0DB1B07D0BB4209
:101C80001FD102201DE000201BE0042019E00820E5
:101C900017E0464B9D4201D1002012E0444B9D428B
:101CA00001D100200DE0434B9D4201D1002008E00E
:101CB000414B9D4201D1002003E0404B9D4200D1A9
:101CC00000200123E769DB039F4233D100280ED0B7
:101CD000022816D004281CD0082824D001260A097E
:101CE00012010807400F10432168C8602BE0FEF77F
:101CF0002FFF616840004A088018FEF7F7F981B2AB
:101D0000EDE761682E4A48088018FEF7EFF981B2C6
:101D1000E5E7FEF72DFF616840004A088018FEF7EE
:101D2000E5F981B2DBE7616848088018FEF7DEF963
:101D300081B2D4E7002808D0022811D0042818D096
:101D4000082821D001263046F8BDFEF701FF616862
:101D50004A088018FEF7CAF9216880B2C860F2E725
:101D60006168184A48088018FEF7C0F980B2E86038
:101D7000E9E7FEF7FDFE61684A088018FEF7B6F94C
:101D8000216880B2C860DEE761684808C018FEF7C5
:101D9000ADF980B2E860D6E7F369FFEF00380140A3
:101DA000001002400044004000480040004C004049
:101DB000005000400014014000180140001C014088
:101DC0000024F40000127A006921095C212901D065
:101DD00002207047014640314A8A002A12D001236E
:101DE00082681B039A4202D10269002A16D0C26C93
:101DF000531CC364006812780285488A401E4882DA
:101E00000020704701680A6880239A430A600068CE
:101E1000016840221143016000207047C26C0368D2
:101E20001288D205D20D1A85C26C921CC264E4E7F6
:101E3000FFB581B005460E4617460A9C1DE0601CA2
:101E40001BD0002C05D0FEF7DDFC0499401AA042FF
:101E500013D928680168FF22A132914301602868E4
:101E60006035816849084900816020206872A87245
:101E700000202872032005B0F0BD2868C1693046F3
:101E8000884304D00020B842D9D00020F3E70120D5
:101E9000F9E7000010B50248FFF7EEF910BD0000A9
:101EA000A800002002E008C8121F08C1002AFAD1C9
:101EB00070477047002001E001C1121F002AFBD1CA
:101EC000704700001FB5FEF7ABFCFFF77BFCFFF788
:101ED000A1FBFFF785FBFFF763FBFFF7EFFBFFF7C6
:101EE00025FC01ACFF22013219491A4800F06FF8B5
:101EF000012219491948FFF7D3FA1948FFF72AF9BF
:101F000000211848FEF73AFA002000901648174AB8
:101F1000002103681348FEF75DFA18E014480078C2
:101F200001280AD100BF2146641C0122094800F0A3
:101F30005DF80028F7D10E4908700E480078012896
:101F400002D100200B4908700120FEF7A0FBE5E755
:101F5000280100201801002004000020A800002013
:101F6000680000201000002000000020E020000891
:101F70000500002006000020002808D00168002984
:101F800005D0C1688268914203D1406808E0002012
:101F900070478A4201D9501A02E04068891A401AF3
:101FA000401E7047002808D00168002905D0C1688C
:101FB0008268914203D1002070470020704791420F
:101FC00001D9881A70474068511A401A7047002892
:101FD0000AD0002A08D0002906D000238360C360FD
:101FE000426001600120704700207047F8B5044648
:101FF0000F461646002C32D0206800282FD0002E25
:102000002DD06168A068884201D30020A0602046DE
:10201000FFF7C8FFB04202D2002822D0064661680E
:10202000A0680D1AB54200D9354621682A4609181C
:102030003846FEF771F8A0684019A060761B002EA4
:1020400005D0781932462168FEF766F8A660616807
:10205000A068884201D30020A060A819F8BD002024
:10206000F8BD0020F8BDF8B504460F461646002C12
:1020700032D0206800282FD0002E2DD06168E06873
:10208000884201D30020E0602046FFF775FFB04290
:1020900002D2002822D006466168E0680D1AB542D7
:1020A00000D9354621682A4608183946FEF734F823
:1020B000E0684019E060761B002E05D079193246A1
:1020C0002068FEF729F8E6606168E068884201D37D
:1020D0000020E060A819F8BD0020F8BD0020F8BD80
:1020E000000006000C00130019001F0026002C0041
:1020F000330039003F0046004C00530059005F0098
:1021000066006C00730079007F0086008C009300ED
:1021100099009F00A600AC00B300B900BF00C60044
:10212000CC00D300D900DF00E600EC00F300F9009A
:10213000FF0006010C01130119011F0126012C01EA
:10214000330139013F0146014C01530159015F013F
:1021500066016C01730179017F0186018C01930195
:1021600099019F01A601AC01B301B901BF01C601EC
:10217000CC01D301D901DF01E601EC01F301F90142
:10218000FF0106020C02130219021F0226022C0292
:10219000330239023F0246024C02530259025F02E7
:1021A00066026C02730279027F0286028C0293023D
:1021B00099029F02A602AC02B302B902BF02C60294
:1021C000CC02D302D902DF02E602EC02F302F902EA
:1021D000FF0206030C03130319031F0326032C033A
:1021E000330339033F0346034C03520359035F0390
:1021F00066036C03720379037F0386038C039203E7
:1022000099039F03A603AC03B203B903BF03C6033C
:10221000CC03D203D903DF03E603EC03F203F90393
:10222000FF0306040C04120419041F0426042C04E2
:10223000320439043F0446044C04520459045F0438
:1022400066046C04720479047F0486048C0492048E
:1022500099049F04A604AC04B204B904BF04C604E4
:10226000CC04D204D904DF04E604EC04F204F9043B
:10227000FF0406050C05120519051F0526052C058A
:10228000320539053F0546054C05520559055F05E0
:1022900066056C05720579057F0586058C05920536
:1022A00099059F05A605AC05B205B905BF05C6058C
:1022B000CC05D205D905DF05E605EC05F205F905E3
:1022C000FF0506060C06120619061F0626062C0632
:1022D000320639063F0646064C06520659065F0688
:1022E00066066C06720679067F0685068C069206DF
:1022F00099069F06A506AC06B206B906BF06C50636
:10230000CC06D206D906DF06E506EC06F206F9068B
:10231000FF0605070C07120719071F0725072C07DB
:10232000320739073F0745074C07520759075F0730
:1023300065076C07720779077F0785078C07920787
:1023400099079F07A507AC07B207B907BF07C507DD
:10235000CC07D207D907DF07E507EC07F207F90733
:10236000FF0705080C08120819081F0825082C0883
:10237000320839083F0845084C08520859085F08D8
:1023800065086C08720879087F0885088C0892082F
:1023900099089F08A508AC08B208B908BF08C50885
:1023A000CC08D208D908DF08E508EC08F208F908DB
:1023B000FF0805090C09120919091F0925092C092B
:1023C000320939093F0945094C09520959095F0980
:1023D00065096C09720979097F0985098C099209D7
:1023E00099099F09A509AC09B209B809BF09C5092E
:1023F000CC09D209D809DF09E509EC09F209F80985
:10240000FF09050A0C0A120A180A1F0A250A2C0AD3
:10241000320A380A3F0A450A4C0A520A580A5F0A29
:10242000650A6C0A720A780A7F0A850A8C0A920A7F
:10243000980A9F0AA50AAC0AB20AB80ABF0AC50AD6
:10244000CC0AD20AD80ADF0AE50AEC0AF20AF80A2C
:10245000FF0A050B0C0B120B180B1F0B250B2C0B7B
:10246000320B380B3F0B450B4C0B520B580B5F0BD1
:10247000650B6C0B720B780B7F0B850B8C0B920B27
:10248000980B9F0BA50BAC0BB20BB80BBF0BC50B7E
:10249000CC0BD20BD80BDF0BE50BEC0BF20BF80BD4
:1024A000FF0B050C0C0C120C180C1F0C250C2C0C23
:1024B000320C380C3F0C450C4C0C520C580C5F0C79
:1024C000650C6C0C720C780C7F0C850C8C0C920CCF
:1024D000980C9F0CA50CAC0CB20CB80CBF0CC50C26
:1024E000CC0CD20CD80CDF0CE50CEB0CF20CF80C7D
:1024F000FF0C050D0B0D120D180D1F0D250D2B0DCD
:10250000320D380D3F0D450D4B0D520D580D5F0D21
:10251000650D6B0D720D780D7F0D850D8B0D920D78
:10252000980D9F0DA50DAB0DB20DB80DBF0DC50DCE
:10253000CB0DD20DD80DDF0DE50DEB0DF20DF80D25
:10254000FF0D050E0B0E120E180E1F0E250E2B0E74
:10255000320E380E3F0E450E4B0E520E580E5F0EC9
:10256000650E6B0E720E780E7F0E850E8B0E920E20
:10257000980E9F0EA50EAB0EB20EB80EBF0EC50E76
:10258000CB0ED20ED80EDF0EE50EEB0EF20EF80ECD
:10259000FF0E050F0B0F120F180F1F0F250F2B0F1C
:1025A000320F380F3F0F450F4B0F520F580F5F0F71
:1025B000650F6B0F720F780F7F0F850F8B0F920FC8
:1025C000980F9F0FA50FAB0FB20FB80FBF0FC50F1E
:1025D000CB0FD20FD80FDF0FE50FEB0FF20FF80F75
:1025E00000000000000000000102030406070809C3
:1025F000000000000102030418260008000000206B
:1026000010000000A41E000828260008100000206A
:1026100018060000B41E0008800200000000000040
:082620000000000000127A0026
:04000005080000BD32
:00000001FF
