:020000040800F2
:1000000078060020D10000083D1E0008671C00088B
:1000100000000000000000000000000000000000E0
:10002000000000000000000000000000BB1E0008EF
:100030000000000000000000B91E0008BD1E0008FE
:10004000E3000008E3000008E3000008E300000804
:10005000E3000008E3000008E3000008E3000008F4
:10006000E3000008E3000008F9010008E3000008CD
:10007000E3000008E3000008E3000008E3000008D4
:10008000E3000008E3000008E3000008E3000008C4
:10009000E3000008E3000008E3000008E3000008B4
:1000A000E3000008E3000008E3000008112700084F
:1000B000E3000008E3000008E30000080348854669
:1000C00000F04EF8004800475D2700087806002041
:1000D0000448804704480047FEE7FEE7FEE7FEE7E6
:1000E000FEE7FEE7491F0008BD00000830B50B46DB
:1000F000014600202022012409E00D46D5409D4202
:1001000005D31D469540491B254695404019154687
:10011000521E002DF1DC30BD03460B439B0703D07C
:1001200009E008C9121F08C0042AFAD203E00B78BC
:100130000370401C491C521EF9D27047D2B201E034
:100140000270401C491EFBD270470022F6E710B532
:1001500013460A4604461946FFF7F0FF204610BD35
:10016000064C0125064E05E0E36807CC2B430C3C0A
:1001700098471034B442F7D3FFF7A4FF8052000829
:10018000A052000870B50446656A284600F0A2F83F
:100190000120287170BD70B50446656A284600F0DC
:1001A0006BF80120287170BD70B505466C6A206936
:1001B000042108432061204600F08EF801202071C0
:1001C00070BD70B505466C6A206904210843206142
:1001D000204600F053F80120207170BD70B5044630
:1001E000656A284600F077F870BD70B50446656A08
:1001F000284600F042F870BD10B5024800F047FAFA
:1002000010BD00007000002010B504460D492068A4
:1002100088420BD20C4A2168881A1421FFF766FF26
:100220008000206408480838E0630AE0054A216835
:10023000881A1421FFF75AFF80002064014808380B
:10024000E06310BD080402400800024030B50124FC
:10025000056CAC40C56B6C60046863604468102C2E
:1002600004D10468A2600468E16003E00468A1604E
:100270000468E26030BD7047704770477047000007
:1002800070B503460024002500BF5879012801D12C
:10029000022070BD0120587100BF0220187118683B
:1002A00004680B4890402646864334464E680868EA
:1002B00030430546284690400443186804600120F6
:1002C000187100BF0020587100BF00BFE1E70000B7
:1002D000FE0F000070477047704710B50446002CB1
:1002E00001D1012010BD2079002803D16071204682
:1002F00000F008F802202071002020610120207108
:100300000020EFE710B586B00446142101A8FFF7DE
:100310001CFF2F492068884257D100BF2D48C06973
:100320000121490708432B49C8610846C0694904AF
:100330000840009000BF00BF00BF26484069091375
:10034000084324494861084640690121490408409E
:10035000009000BF00BF10200190032002900020F9
:10036000039001A90920C00600F098FA1A481B4919
:100370000860102048600021184881608021C16019
:100380004900016189004161202181610021C16131
:1003900000F0F6F9002801D0FFF76DFF00BF0E480E
:1003A0005030806A0F21090288430B49503188621E
:1003B0000846806A8915084307495031886200BFA2
:1003C00000BF0648A060446200BF06B010BD000038
:1003D0000074004000100240300002407000002015
:1003E000024600BF5079012801D102207047012048
:1003F000507100BF022010711068006801238B400B
:1004000018431368186000290CD1106800683C2359
:1004100018403C2813D11068406801231843136822
:1004200058600CE0106800680F239B041840984245
:1004300005D11068406802231843136858600120F2
:10044000107100BF0020507100BF00BFCEE7000058
:10045000FFB581B004460D4616460A9F0020009065
:1004600000BF6079012802D1022005B0F0BD012053
:10047000607100BF02202071002D24D13948A1688D
:1004800088623948A168C8623848A1680863206852
:10049000006801210903084321680860002F04D087
:1004A000042F06D0082F0CD107E0206808300090F8
:1004B00008E020680C30009004E0206810300090C4
:1004C00000E000BF24E02A48E16888622948E1682A
:1004D000C8622948E16808632068006801210907AB
:1004E000084321680860002F04D0042F06D0082F8D
:1004F0000CD107E020681430009008E02068183024
:10050000009004E020681C30009000E000BF00BFB5
:10051000002D0DD12068006801214903084321689E
:100520000860A0683146049B009A00F05BF90CE07B
:100530002068006801214907084321680860E068D5
:100540003146049B009A00F04DF9206800680121B3
:10055000A94008432168086000BF0020607100BF07
:1005600000BF82E785010008DD010008A90100083D
:1005700097010008EB010008C3010008024610685B
:10058000006801238B4098431368186001201071A4
:100590000020704770B504460D46002620680068AC
:1005A00001210903A9408843216808602068016887
:1005B0000120A840814320680160002D0BD1A06874
:1005C00000F01DF8064620680068012149038843B1
:1005D000216808600AE0E06800F011F8064620682B
:1005E000006801214907884321680860002E02D075
:1005F0000420207101E001202071304670BD0146C9
:10060000086800680E2290430A6810600868006855
:10061000400840000A68106001200A6C9040CA6BD4
:10062000506001222120425400BF00222020425469
:1006300000BF0020704770B5044600252120005DF2
:10064000022803D00420A06301251EE02068006872
:100650000E21884321680860206800684008400037
:10066000216808600120216C8840E16B486001210D
:100670002120015500BF00212020015500BF606BE3
:10068000002802D02046616B8847284670BD70B5AF
:100690000446E06B0568206806680420216C8840E9
:1006A000284000281BD004203040002817D02068A4
:1006B000006820210840002805D120680068042136
:1006C0008843216808600420216C8840E16B486001
:1006D000E06A002852D02046E16A88474EE00220B6
:1006E000216C88402840002823D002203040002878
:1006F0001FD02068006820210840002808D1206809
:1007000000680A21884321680860012121200155E1
:100710000220216C8840E16B486000BF002120204E
:10072000015500BFA06A002828D02046A16A88474A
:1007300024E00820216C8840284000281ED0082092
:10074000304000281AD0206800680E2188432168B4
:1007500008600120216C8840E16B48600120A063A3
:1007600001212120015500BF00212020015500BF9B
:10077000206B002802D02046216B884770BD000006
:1007800070B504460025002C01D1012070BD022166
:10079000212001552068056811480540A16860685E
:1007A0000843E16808432169084361690843A16976
:1007B0000843E16908430543206805602046FFF7C8
:1007C00023FD0020A062E06220636063A06301213A
:1007D000212001550021202001550020D6E70000EE
:1007E0000FC0FFFFF8B504460D4616461F46002011
:1007F000009000BF2020005D012801D10220F8BD3B
:1008000001212020015500BF2120005D01282DD1AC
:100810000221212001550020A063206800684008C3
:100820004000216808603B46324629462046FFF7D3
:100830000DFDE06A002806D0206800680E210843FC
:10084000216808600BE0206800680A2108432168DD
:1008500008602068006804218843216808602068D7
:100860000068012108432168086006E000BF0021FC
:100870002020015500BF022000900098BFE731B54D
:1008800000F00AF90546009C601C00D0641C00F0D2
:1008900003F9401BA042FAD338BD000078B50346E7
:1008A000002200240020E3E0012696400D68354038
:1008B0002C46002C7ED04D68022D02D04D68122DA2
:1008C00015D1D508AE001D462035A8595507EE0EA6
:1008D0000F25B5400646AE4330465607F60E0D6965
:1008E000B5402843D508AD001E4620367051186823
:1008F00056000325B5400646AE4330460D79AD0798
:10090000AD0F5600B540284318604D68012D08D042
:100910004D68022D05D04D68112D02D04D68122D65
:1009200018D1986856000325B5400646AE433046B8
:100930005600CD68B5402843986058680125954019
:100940000646AE43304610264D6835402D09954089
:1009500028435860D86856000325B5400646AE4384
:10096000304656008D68B5402843D86001263607CA
:100970004D683540B5427AD100BF404DAD69012682
:1009800035433E4EB5613546AD69ED07ED0F009537
:1009900000BF00BF3A4D9608B600A85995072E0F24
:1009A0000F25B5400646AE4330460925ED06AB425D
:1009B00003D100E05BE0002514E0324DAB4201D1F1
:1009C00001250FE0304DAB4201D102250AE02F4D49
:1009D000AB4201D1032505E02D4DAB4201D10425E9
:1009E00000E005259607360FB5402843244D9608AC
:1009F000B600A851274D28680546A543284601267C
:100A000036044D683540B54202D105462543284697
:100A1000204D286068680546A543284601267604CF
:100A20004D683540B54202D1054625432846194D4B
:100A30006860A8680546A5432846012636054D6826
:100A40003540B54202D1054625432846114DA860E0
:100A5000E8680546A5432846012676054D683540D9
:100A6000B54202D10546254328460A4DE860521C8E
:100A70000D68D540002D00D016E778BD001002406B
:100A8000080001400004004800080048000C00482D
:100A90000010004800040140014800687047000051
:100AA0005400002002480168491C016070470000A2
:100AB0005400002010B5064801681022114301605F
:100AC000002000F007F800F017F8002010BD00002B
:100AD0000020024010B5044600F0FEF97D21C90057
:100AE000FFF704FB00F088FD00222146501E00F0B5
:100AF0002FF8002010BD000008B500BF0D48806928
:100B0000012108430B49886108468069C007C00F6E
:100B1000009000BF00BF00BF0846C0690904084339
:100B20000449C8610846C06909040840009000BF34
:100B300000BF08BD0010024000BFC206D20E012156
:100B40009140024A116000BF7047000000E100E0E0
:100B500070B504460D4616462946204601F070F948
:100B600070BD0000F8B504460026002501210904E7
:100B70002068084088427AD100276048C06909038C
:100B8000084000280DD100BF5C48C06908435B499C
:100B9000C8610846C06909040840009000BF00BF52
:100BA000012757480068FF2101310840002816D16D
:100BB00053480068084352490860FFF76DFF064636
:100BC00006E0FFF769FF801B642801D90320F8BD08
:100BD0004B480068FF21013108400028F1D0474808
:100BE000006A0321090208400546002D2DD06068E7
:100BF0000840A84229D04148006A884305463F483A
:100C0000006A0121090408433C4908620846006A59
:100C10000121090488433949086208460562E8074A
:100C2000C00F002811D0FFF737FF064607E0FFF797
:100C300033FF801B3349884201D90320C7E72F487F
:100C4000006A022108400028F1D02C48006A0321E4
:100C5000090288436168084328490862012F05D1C9
:100C60000846C069090488432449C86100BF207848
:100C7000C007C00F002807D02048006B8008800004
:100C8000A16808431D490863022120680840022822
:100C900008D11A48006B032109048843E16808431E
:100CA000164908630121890420680840884208D158
:100CB0001248006B032189048843216908430F49C6
:100CC0000863202120680840202807D10B48006BCA
:100CD000102188436169084308490863012189029A
:100CE00020680840884207D10448006B40218843AF
:100CF000A169084301490863002068E70010024029
:100D0000007000408813000070B504460D460026B0
:100D10006C480068C007C00FA8420ED2694800683E
:100D20004008400028436749086008460068C0073B
:100D3000C00FA84201D0012070BD022120680840E8
:100D4000022807D160484068F0218843A168084321
:100D50005D4948602078C007C00F00287ED06068D9
:100D6000012808D15848006801214904084000289A
:100D700021D10120E0E76068022808D152480068CC
:100D8000012149060840002815D10120D4E76068F8
:100D9000032808D14C48406B012109040840002871
:100DA00009D10120C8E7484800680221084000280E
:100DB00001D10120C0E74448406880088000616894
:100DC000084341494860FFF767FE0646606801280E
:100DD0000FD107E0FFF760FE801B3C49884201D934
:100DE0000320A9E7384840680C2108400428F1D1C5
:100DF00034E0606802280FD107E0FFF74DFE801B4A
:100E00003249884201D9032096E72F4840680C21D7
:100E100008400828F1D121E0606803280FD107E0DD
:100E2000FFF73AFE801B2949884201D9032083E756
:100E3000254840680C2108400C28F1D10EE007E05D
:100E4000FFF72AFE801B2149884201D9032073E75E
:100E50001D4840680C2108400028F1D1194800685D
:100E6000C007C00FA8420ED91648006840084000CD
:100E700028431449086008460068C007C00FA8420C
:100E800001D0012058E7042120680840042808D137
:100E90000D484068072109028843E16808430A4970
:100EA000486000F031F808494968F022114009090A
:100EB000074A515CC840074908600020FFF70AFE56
:100EC000002039E700200240001002408813000093
:100ED0006852000858000020014800687047000070
:100EE0005800002000B5FFF7F7FF054949680722C1
:100EF00012021140090A034A515CC84000BD0000BB
:100F00000010024078520008F0B589B02FA00146C9
:100F10000EC9C06805AC0EC4089030A001460EC9C9
:100F2000C06801AC0EC404900024002600270025F0
:100F3000002000902D4844680C20204000283DD01F
:100F4000042804D0082805D00C2836D132E02848DF
:100F5000009036E00F2080042040800C05A90D5C35
:100F60002248C06A0007000F01A90E5C0320C003DD
:100F7000204001210904884206D131461C48FFF770
:100F8000B5F86843074613E00320C003204003215F
:100F9000C903884206D131461648FFF7A7F86843CF
:100FA000074605E031461248FFF7A0F868430746B8
:100FB000009706E00F48009003E000BF0C48009047
:100FC00000BF00BF009809B0F0BD00000203040597
:100FD000060708090A0B0C0D0E0F1010010203047E
:100FE00005060708090A0B0C0D0E0F100010024031
:100FF00000127A00006CDC02F8B504460025207867
:10100000C007C00F002872D0FA4840680C21084081
:1010100004280CD0F74840680840082813D1F54848
:101020004068490308400121090488420BD1F14876
:10103000006801214904084000286BD0606800283E
:1010400068D10120F8BD00BF6068012807D1E948D8
:101050000068012109040843E649086031E060683E
:1010600000280ED1E3480068012109048843E149C2
:10107000086008460068012189048843DD4908604A
:101080001FE0606805280ED1DA4800680121890454
:101090000843D8490860084600680121090408434C
:1010A000D44908600DE0D348006801210904884351
:1010B000D049086008460068012189048843CD4969
:1010C000086000BF6068002812D0FFF7E5FC054605
:1010D00006E0FFF7E1FC401B642801D90320B1E7DB
:1010E000C44800680121490408400028F1D011E0FB
:1010F000FFF7D2FC054606E0FFF7CEFC401B642854
:1011000001D903209EE7BB4800680121490408403B
:101110000028F1D1022120680840022862D1B54898
:1011200040680C21084000280CD0B24840680840B4
:1011300008281CD1AF484068490308400121C90371
:10114000884214D1AB48006802210840002804D02E
:10115000E068012801D0012074E7A6480068F82162
:1011600088432169C9000843A24908603AE0E06861
:10117000002820D09F480068012108439D4908604D
:10118000FFF78AFC054606E0FFF786FC401B0228B5
:1011900001D9032056E7974800680221084000283B
:1011A000F2D094480068F82188432169C9000843B7
:1011B0009049086016E08F480068400840008D495B
:1011C0000860FFF769FC054606E0FFF765FC401B79
:1011D000022801D9032035E786480068022108402B
:1011E0000028F2D1082120680840082831D1E069A0
:1011F000002817D07F48406A012108437D49486292
:10120000FFF74AFC054606E0FFF746FC401B0228B4
:1012100001D9032016E77748406A022108400028D8
:10122000F2D016E07348406A4008400071494862B5
:10123000FFF732FC054606E0FFF72EFC401B0228B4
:1012400001D90320FEE66B48406A022108400028CD
:10125000F2D1042120680840042871D10026654895
:10126000C0698906084000280DD100BF6148C069E7
:1012700008436049C8610846C069090408400090F5
:1012800000BF00BF01265C480068FF210131084013
:10129000002816D158480068084357490860FFF7EE
:1012A000FBFB054606E0FFF7F7FB401B642801D96E
:1012B0000320C7E650480068FF210131084000289C
:1012C000F1D000BFA068012806D14A48006A012178
:1012D0000843484908622BE0A06800280CD1454823
:1012E000006A40084000434908620846006A042139
:1012F0008843404908621BE0A06805280CD13D489E
:10130000006A042108433B4908620846006A01213B
:101310000843384908620BE03648006A400840003C
:10132000344908620846006A04218843314908624A
:1013300000BFA068002813D0FFF7AEFB054608E009
:1013400029E0FFF7A9FB401B2C49884201D9032063
:1013500078E62848006A022108400028F1D011E010
:10136000FFF79AFB054607E0FFF796FB401B234972
:10137000884201D9032065E61E48006A0221084020
:101380000028F1D1012E05D11A48C06931078843E0
:101390001849C86100BF10212068084010285FD19B
:1013A000606901282CD11348406B0421084311497E
:1013B00048630846406B012108430E494863FFF724
:1013C0006BFB054606E0FFF767FB401B022801D9CF
:1013D000032037E60748406B022108400028F2D07E
:1013E0000448406BF8218843A169C90008430149BA
:1013F000486335E000100240007000408813000090
:101400006069401D00280FD17A48406B0421884351
:10141000784948630846406BF8218843A169C900B0
:101420000843744948631BE07248406B0421084339
:10143000704948630846406B400840004863FFF726
:101440002BFB054606E0FFF727FB401B022801D9CE
:101450000320F7E56748406B022108400028F2D1DD
:10146000202120680840202852D1624840680C2181
:1014700008400C280AD05F4840680840082811D16D
:101480005C4840684903084088420BD15948406B8A
:1014900001210904084000283AD0206A012837D0E9
:1014A0000120CFE5206A002819D05248406B012165
:1014B000090408434F494863FFF7EEFA054606E082
:1014C000FFF7EAFA401B022801D90320BAE5494890
:1014D000406B0121090408400028F1D018E045487C
:1014E000406B01210904884342494863FFF7D4FA5D
:1014F000054606E0FFF7D0FA401B022801D9032079
:10150000A0E53C48406B0121090408400028F1D1C6
:10151000606A00286CD0374840680C2108400828D1
:1015200064D0606A022847D1324800680121090668
:10153000884330490860FFF7AFFA054606E0FFF739
:10154000ABFA401B022801D903207BE5294800683B
:101550000121490608400028F1D100BF2548C06A92
:1015600000090001216B08432249C862A16AE06AB0
:101570000843204949687B22D203914308431D490F
:10158000486000BF08460068012109060843194960
:101590000860FFF781FA054606E0FFF77DFA401B79
:1015A000022801D903204DE51248006801214906AF
:1015B00008400028F1D01BE00E4800680121090610
:1015C00088430C490860FFF767FA054606E0FFF715
:1015D00063FA401B022801D9032033E5054800685F
:1015E0000121490608400028F1D101E0012029E548
:1015F000002027E50010024070B504462546681E0D
:101600000949884201D901200CE0681E0749486158
:101610000321081F00F014FC002004498861072002
:101620000861002070BD0000FFFFFF0000E000E047
:10163000024600BF3C20805C012801D10220704797
:1016400001233C20835400BF02233D2083541068B3
:1016500040687023984313685860106840680B68AE
:101660001843136858601068806880239843136893
:101670009860106880684B6818431368986001236D
:101680003D20835400BF00233C20835400BF002032
:10169000D5E710B50446002C01D1012010BD3D2036
:1016A000005D002805D100213C200155204600F0B6
:1016B0000DF802213D200155211D206800F080FC1D
:1016C00001213D2001550020E8E7000008B5012276
:1016D0009207016891420DD100BF0749C9690122F3
:1016E0001143054AD1611146C969C907C90F009163
:1016F00000BF00BF08BD00000010024001460222EA
:101700003D20425408680068012210430A681060B6
:1017100001223D20425400207047F8B504460D4692
:10172000002600BF3C20005D012801D10220F8BD49
:1017300001213C20015500BF02213D2001552068B8
:1017400086687721304688430646FF2109023046E5
:101750008843064620688660286850283ED00CDC06
:10176000202863D004DC002856D0102868D158E027
:10177000302860D0402863D144E0602838D07028F9
:101780000DD001210903401A02D0401A58D117E0A8
:1017900020688068C008C0002168886051E0EB685C
:1017A0006A68A968206800F063FC20688668772171
:1017B000304688430646772006432068866040E02E
:1017C000EB686A68A968206800F052FC20688068AD
:1017D0000121890308432168886032E0EA6869686A
:1017E000206800F061FC5021206800F050FC28E0E7
:1017F000EA686968206800F072FC6021206800F0E7
:1018000046FC1EE0EA686968206800F04DFC402153
:10181000206800F03CFC14E00021206800F037FC58
:101820000FE01021206800F032FC0AE0202120683F
:1018300000F02DFC05E03021206800F028FC00E0DD
:1018400000BF00BF01213D20015500BF00213C2009
:10185000015500BF00206AE770477047F8B504469D
:101860002068C569206806682807000F0090009866
:1018700000280BD120202840002807D0202030400D
:10188000002803D0204600F036FDF8BD20688768A8
:10189000009800287ED0F807C00F002804D1FF2050
:1018A000213030400028F5D0E807C00F00280BD0C9
:1018B000FF2001303040002806D001202168086256
:1018C000E06E01210843E0660220284000280AD08B
:1018D000F807C00F002806D0022021680862E06ED9
:1018E00004210843E0660420284000280AD0F807B5
:1018F000C00F002806D0042021680862E06E022193
:101900000843E0660820284000280ED02020304000
:10191000002803D1F807C00F002806D0082021684E
:101920000862E06E08210843E066E06E002841D0BE
:1019300020202840002806D020203040002802D057
:10194000204600F0D8FCE06E08210840002805D1B0
:101950002068806840210840002826D0204600F0FA
:10196000A9FC2068806840210840002819D0206820
:101970008068884321688860606E00280DD0264802
:10198000616E4863606EFEF756FE002812D0606EEE
:10199000416B00E00FE088470CE02046FFF75DFF59
:1019A00008E02046FFF759FF04E02046FFF755FF07
:1019B0000020E06669E7012000052840002811D0DA
:1019C00001208005384000280CD001200005216846
:1019D00008622021692001556A2001552046FFF741
:1019E0003BFF52E780202840002807D0802030406D
:1019F000002803D0204600F019FE46E7402028408A
:101A0000002807D040203040002803D0204600F0B6
:101A100062FC3AE700BF38E79D22000810B5044693
:101A2000002C01D1012010BDA069002800D000E0E9
:101A300000BF6920005D002805D100216820015504
:101A4000204600F02DF82421692001552068006807
:101A50004008400021680860204600F093FC0128FF
:101A600000D1E0E7606A002802D0204600F052FB77
:101A7000206840680921C9028843216848602068BD
:101A800080682A21884321688860206800680121D5
:101A9000084321680860204600F0B4FBC3E700005B
:101AA00010B586B00446142101A8FEF74EFB1E496E
:101AB0002068884236D100BF1C4880690121890313
:101AC00008431A4988610846806901218903084052
:101AD000009000BF00BF00BF14484069C900084320
:101AE00012494861084640690121490408400090B4
:101AF00000BF00BF0320400201900220029000209E
:101B00000390032004900120059001A90920C0063C
:101B1000FEF7C4FE002211461B20FFF719F81B2018
:101B2000FFF70AF806B010BD00380140001002406F
:101B300010B503466A20C05C20286AD1002901D074
:101B4000002A01D1012010BD012424039868A0427D
:101B500008D11869002805D1C807C00F002801D096
:101B60000120F0E700BF6820C05C012801D10220FD
:101B7000E9E701246820C45400BF59655820C252C7
:101B80005A20C25200BF24039868A0420AD11869A3
:101B9000002803D1204C5C20C45220E0FF245C20AC
:101BA000C4521CE0986800280AD11869002803D1A3
:101BB000FF245C20C45212E07F245C20C4520EE05B
:101BC000012424079868A04209D11869002803D18C
:101BD0007F245C20C45202E03F245C20C45200BF3A
:101BE0000020D86622246A20C45400BF0024682044
:101BF000C45400BF18688068012420431C68A0609A
:101C000018680068FF24213420431C6820600020ED
:101C100099E7022097E70000FF01000010B5044695
:101C20000B4800780A2803D101200A49087009E00E
:101C300001220749084800F0D5FF012802D0012001
:101C400006490870012202490548FFF771FF10BDDF
:101C500050000020510000206401002052000020AC
:101C6000F4000020704700BFFEE700001CB5002014
:101C7000009001900B480C4908600846FEF72DFBC8
:101C8000002801D0FEF7F7FA2420009000200190F0
:101C9000002269460448FEF7F3FA002801D0FEF757
:101CA000EAFA1CBD007400405C00002008B500BFCB
:101CB0000A484069012108430849486108464069CB
:101CC000C007C00F009000BF00BF002211460A20CD
:101CD000FEF73EFF0A20FEF72FFF08BD001002406E
:101CE00000B587B0142102A8FEF72FFA00BF2348E1
:101CF00040690121C90408432049486108464069F8
:101D00000121C9040840019000BF00BF00BF1B486B
:101D10004069C900084319494861084640690121E2
:101D200089050840019000BF00BF00BF134840690B
:101D30004911084311494861084640690121490495
:101D40000840019000BF00BF081102900C480390AA
:101D50000020049002A90B48FEF7A0FD0C20029081
:101D6000022003900020049005900120069002A913
:101D70000920C006FEF792FD07B000BD001002402A
:101D8000000021100008004800B587B00020039033
:101D9000049005900690019002900120800715495B
:101DA0000860642048600021124881600E21C160F3
:101DB000002101618161FFF76CFC002801D0FEF772
:101DC0005AFA01200003039003A90A48FFF7A5FC73
:101DD000002801D0FEF74FFA202001900020029049
:101DE00001A90448FFF724FC002801D0FEF743FABC
:101DF00007B000BDB400002010B50E480E490860C1
:101E0000E1204002486000210B488160C16001610F
:101E10000C21416100218161C161016200200649FC
:101E200048620846FFF7FAFD002801D0FEF723FAC2
:101E300010BD000000380140F40000207047000091
:101E400010B5002819DA1A4A03071B0F083B9B0834
:101E50009B00D2588307DC0EFF23A3409A438B07D5
:101E60001B0E8407E40EA3401A43114B0407240FF2
:101E7000083CA408A4001A5118E00E4A03231B02D0
:101E8000D21883089B00D2588307DC0EFF23A3409F
:101E90009A438B071B0E8407E40EA3401A43054B9D
:101EA000032424021B198408A4001A5110BD000049
:101EB0001CED00E000E100E07047704710B5FEF750
:101EC000F1FD10BD00B599B034210CA8FEF73DF925
:101ED0000020089009900A900B901C2101A8FEF7A1
:101EE00034F902200C9001200F9010201090022055
:101EF0001590810316910521C904179101211891AC
:101F00000CA8FFF779F8002801D0FEF7B4F90720F4
:101F100008900220099000200A900B90012108A847
:101F2000FEF7F2FE002801D0FEF7A5F9012001908E
:101F30000020039001A8FEF715FE002801D0FEF74F
:101F40009AF919B000BD0000194800680121084342
:101F50001749086008464068164908401449486017
:101F6000084600681449084011490860084600689E
:101F70000121890488430E490860084640683F21D2
:101F8000090488430A4948600846C06A00090001FC
:101F9000C8620846006B09490840054908630846BD
:101FA000406B400840004863002088607047000094
:101FB000001002400CB8FF08FFFFF6FEACFEF0FF79
:101FC00010B500220268244B984206D001239B07DB
:101FD000984202D0214B984205D170241346A34366
:101FE0001A464B681A431C4B984212D001239B0798
:101FF00098420ED0194B98420BD0194B984208D0FA
:10200000184B984205D0184B984202D0174B984273
:1020100006D1032424021346A3431A46CB681A436D
:1020200080241346A3434C6923431A4602608B68FD
:10203000C3620B688362084B984208D0094B9842F0
:1020400005D0094B984202D0084B984201D10B6948
:1020500003630123436110BD002C014000040040D4
:102060000020004000400140004401400048014081
:1020700070B50C4600218168FF2636020D46B54337
:1020800029461D02154325432943816070BD10B5C3
:102090000A460021816870240B46A3431946072392
:1020A00013431943816010BD70B50B4614460021DF
:1020B0000022026A056A6D086D0005628169F026DA
:1020C0000D46B5432946250129430A261546B54341
:1020D0002A4615461D432A468161026270BD70B5CD
:1020E0000B46144600210022056A1026B5430562FE
:1020F0008169026A0F2636030D46B543294625033A
:102100002943A0261546B5432A461D012A4381616D
:10211000026270BD818CC907C90F002908D001680F
:102120004968012252049143826A11430268516056
:102130000222416A1140002907D001684968D20390
:102140009143C26A1143026851600422416A1140FE
:10215000002907D00168496812049143026B1143BA
:10216000026851600822416A1140002907D00168C5
:10217000496812039143426B114302685160102277
:10218000416A1140002907D0016889681202914311
:10219000826B1143026891602022416A114000293C
:1021A00007D00168896812029143C26B114302682B
:1021B00091604022416A1140002915D001684968A8
:1021C00092039143026C114302685160012212058F
:1021D000016C914208D1016849680322520591437C
:1021E000426C1143026851608022416A114000290B
:1021F00007D00168496812039143826C1143026859
:102200005160704738B5044600250020E066FEF7AF
:1022100043FC05461D492068884207D01C492068B8
:10222000884203D01B492068884223D12068006877
:102230000821084008280BD117482B4600228904A2
:102240000090204600F02BFA002801D0032038BD72
:10225000206800680421084004280BD10E482B4652
:10226000002209050090204600F019FA002801D04C
:102270000320ECE72021692001556A20015500BFA9
:1022800000216820015500BF0020E0E70038014030
:102290000044004000480040FFFFFF0170B50546C4
:1022A0006C6A00215A200153522001532046FFF747
:1022B000D4FA70BD01680968FF2221329143026897
:1022C000116001688968490849000268916020220C
:1022D0006A210A54704710B50446206800684021FE
:1022E0008843216808602021692001552046FFF7B6
:1022F000B9FC002010BDF8B504465C20075B6A20DD
:10230000005D222836D12068858C01210903A06850
:1023100088420AD12069002807D1666D28463840D6
:102320003080606D801C606505E0F8B22840626D09
:10233000511C616510705A20005B401E81B25A200A
:102340000153002914D120680068FF2121318843FE
:102350002168086020688068400840002168886023
:1023600020216A2001552046FFF758FC0020F8BDC7
:102370000020FCE720688069082108432168886103
:102380000220F4E7FEB504460025102600270020B1
:10239000029001902169A068084361690843E169DE
:1023A000084305462068006893490840284321688F
:1023B000086020684068032109038843E1680843F6
:1023C00021684860216AA069084305462068806842
:1023D0000B210902884328432168886000BF874990
:1023E0002068884217D18648006B8007800F00283C
:1023F00006D0012808D0022808D0032808D101E01F
:10240000002607E0022605E0042603E0082601E096
:10241000102600BF5CE07B49206888421AD17848CA
:10242000006B032109040840002808D00121090499
:10243000401A08D0401A08D0401A08D101E00026FE
:1024400007E0022605E0042603E0082601E0102646
:1024500000BF3DE06C49206888421AD16848006B93
:10246000032189040840002808D001218904401A6A
:1024700008D0401A08D0401A08D101E0002607E031
:10248000022605E0042603E0082601E0102600BF2E
:102490001EE05E492068884201D1002618E05C49B0
:1024A0002068884201D1002612E05A4920688842FB
:1024B00001D100260CE058492068884201D100264D
:1024C00006E056492068884201D1002600E0102627
:1024D00000BF0121C903E069884249D1042E20D000
:1024E00004DC002E07D0022E32D111E0082E25D0B8
:1024F000102E2DD12DE0FEF7F5FC40006168490853
:10250000401800906168FDF7F1FD80B2029023E071
:1025100061684A08424BD018FDF7E8FD80B202908E
:102520001AE0FEF7F1FC400061684908401800908D
:102530006168FDF7DBFD80B202900DE061684A083A
:1025400001231B04D018FDF7D1FD80B2029003E0F7
:1025500000BF0120019000BF00BF3249029808402F
:10256000074602980007400F07432068C76040E015
:10257000042E21D004DC002E07D0022E34D111E02D
:10258000082E26D0102E2FD12FE0FEF7ABFC61686D
:102590004908401800906168FDF7A8FD80B22168E5
:1025A000C86025E061684A081F4BD018FDF79EFD02
:1025B00080B22168C8601BE0FEF7A6FC616849088C
:1025C000401800906168FDF791FD80B22168C860F5
:1025D0000EE061684A080123DB03D018FDF786FD91
:1025E00080B22168C86003E000BF0120019000BFF5
:1025F00000BF0198FEBD0000F369FFEF0038014005
:10260000001002400044004000480040004C0040E0
:10261000005000400014014000180140001C01401F
:102620000024F400F0FF000000127A000146692047
:10263000405C212831D15220405A00280DD1086831
:102640000068802398430B6818600868006840237E
:1026500018430B6818600020704701231B0388682B
:1026600098420CD10869002809D1CA6C1088C005AD
:10267000C00D0B681885C86C801CC86405E0CB6C65
:10268000581CC86418780B6818855220405A401EA0
:1026900083B2522043520020DEE70220DCE7FFB580
:1026A00081B004460D4617460A9E24E0701C00289F
:1026B00021D0002E05D0FEF7EFF90499401AB04260
:1026C00019D920680068FF21A1318843216808607A
:1026D00020688068400840002168886020216920C7
:1026E00001556A20015500BF00216820015500BF37
:1026F000032005B0F0BD2068C0692840A84201D180
:10270000012000E00020B842D0D00020F1E7000016
:1027100010B50248FFF7A2F810BD0000F400002039
:1027200030B47446641E2578641CAB4204D3635DE8
:102730005B00E31830BC18471D46F8E702E008C804
:10274000121F08C1002AFAD170477047002001E02B
:1027500001C1121F002AFBD1704700000EB5FEF721
:10276000A9F9FFF7AFFBFFF7BBFAFFF79FFAFFF7F7
:102770007DFAFFF709FBFFF73FFB6C46FF220132B2
:102780001849194800F0DAF9012218491848FFF7EA
:10279000CFF91848FEF7B2FF22E017480078012869
:1027A00014D100BF2146641C01220F4800F0D8F963
:1027B0000028F7D16C46684600F022F805466946C5
:1027C000284600F07DF800200B4908700B4800787F
:1027D000012802D10020094908700120FEF74FF8B6
:1027E000DBE700007401002064010020500000209D
:1027F000F4000020B400002051000020520000200E
:10280000FEB50446002002902578042D01DA0298D6
:10281000FEBDAE1E3146204600F022F80746701C71
:10282000205C0002A15D084301900199B94201D0EA
:102830000298EDE7607800900098012802D0022805
:102840000AD104E0092D01D10120029005E0042DF8
:1028500001D10220029000E000BF00BF0298D7E73C
:1028600070B503460C461449002C02D1C84380B20F
:1028700070BD00BF00251A785B1C0FE0C807C00FB1
:10288000D607F60F7040002804D048080B4E704061
:10289000014600E04908681CC5B25208082DEDDB6E
:1028A000601E041EE6D1C9430A4608021604360E0D
:1028B0003043014688B2DBE7FFFF000008840000D8
:1028C00070B505460C46012D02D0022D0AD104E058
:1028D0002646304600F00AF805E02646304600F06D
:1028E000EFF800E000BF00BF70BD0000F8B506467D
:1028F000B078002806D0012823D0022840D0032831
:102900007DD15CE030790300FFF70AFF0618040868
:102910000C101418414C4248056810E0414C4248E4
:1029200005680CE0414C4248056808E0414C4248CB
:10293000056804E0414C4248056800E000BF00BF64
:102940005EE030790300FFF7EBFE061804080C1078
:1029500014183C4C3C48056810E03C4C3C48056869
:102960000CE03C4C3C48056808E03C4C3C480568A1
:1029700004E03C4C3C48056800E000BF00BF3FE07D
:1029800030790300FFF7CCFE061804080C10141869
:10299000364C3748056810E0364C374805680CE07F
:1029A000364C3748056808E0364C3748056804E07F
:1029B000364C3748056800E000BF00BF20E03079A2
:1029C0000300FFF7ADFE061904080C111519314C70
:1029D0003148056811E0314C314805680DE0314C53
:1029E0003148056809E00AE0304C3148056804E0E8
:1029F000304C3148056800E000BF00BF00E000BF78
:102A000000BF00212D48FDF7EBFC00202B4622469D
:102A1000014600902948FDF71BFDF8BD682C000811
:102A2000000000206831000804000020E83300089E
:102A300008000020283500080C000020A8350008F8
:102A400010000020E835000814000020E83A0008D3
:102A500018000020683D00081C000020A83E000867
:102A600020000020283F000824000020683F0008C4
:102A700028000020684400082C000020E8460008D8
:102A8000300000202848000834000020A848000832
:102A900038000020E84800083C000020E84D00080D
:102AA000400000206850000844000020A8510008A1
:102AB00048000020285200084C0000205C00002044
:102AC00010B5044600210448FDF758FD00210248D6
:102AD000FDF760FD10BD00005C00002030B5014630
:102AE000002902D00868002801D1002030BDCA6842
:102AF0008B689A4201D14C6806E0934201D99C1A36
:102B000002E0D51A4868441B601EEFE730B5014665
:102B1000002902D00868002801D1002030BDCA6811
:102B20008B689A4201D1002406E09A4201D9D41A56
:102B300002E09D1A4868441B2046EFE70346002B3D
:102B400003D0002A01D0002901D1002070470020C5
:102B5000186058609860D8605A6019600120F5E7E5
:102B6000F7B582B00446154603980190002C04D0B6
:102B70002068002801D0002D02D1002005B0F0BD52
:102B80006168A068884201D30020A0602046FFF75A
:102B9000BDFF0746AF4203D2002F00D1EEE73D460E
:102BA000A1686068461AAE4200D92E46A268206825
:102BB000811832460198FDF7AFFAA0688019A0602D
:102BC000AD1B002D06D02168019A90192A46FDF709
:102BD000A3FAA5606168A068884201D30020A060C4
:102BE0007019CBE7F7B582B00446154603980190FB
:102BF000002C04D02068002801D0002D02D1002034
:102C000005B0F0BD6168E068884201D30020E06053
:102C10002046FFF763FF0746AF4203D2002F00D1E3
:102C2000EEE73D46E1686068461AAE4200D92E469E
:102C3000E2682168881832460199FDF76DFAE0686C
:102C40008019E060AD1B002D06D0019A91192A462B
:102C50002068FDF761FAE5606168E068884201D3A9
:102C60000020E0607019CBE7FF07130827083B0836
:102C70004F08630877088B089F08B308C708DB086C
:102C8000EF08030917092B093F09530966097A0957
:102C90008E09A209B509C909DC09F009030A170A56
:102CA0002A0A3D0A510A640A770A8A0A9D0AB00A6A
:102CB000C30AD60AE90AFB0A0E0B200B330B450B9D
:102CC000570B6A0B7C0B8E0BA00BB20BC30BD50BF7
:102CD000E70BF80B0A0C1B0C2C0C3D0C4E0C5F0C7C
:102CE000700C800C910CA10CB20CC20CD20CE20C3A
:102CF000F20C020D110D210D300D3F0D4E0D5D0D2D
:102D00006C0D7B0D890D980DA60DB40DC20DD00D67
:102D1000DE0DEB0DF90D060E130E200E2D0E3A0EE4
:102D2000460E520E5F0E6B0E770E820E8E0E990EB1
:102D3000A50EB00EBB0EC50ED00EDA0EE50EEF0ED0
:102D4000F80E020F0C0F150F1E0F270F300F390F43
:102D5000410F4A0F520F5A0F620F690F710F780F10
:102D60007F0F860F8D0F930F990F9F0FA50FAB0F3E
:102D7000B10FB60FBB0FC00FC50FCA0FCE0FD20FCA
:102D8000D60FDA0FDE0FE10FE40FE70FEA0FED0FBA
:102D9000EF0FF20FF40FF60FF70FF90FFA0FFB0F0B
:102DA000FC0FFD0FFD0FFD0FFE0FFD0FFD0FFD0FC3
:102DB000FC0FFB0FFA0FF90FF70FF60FF40FF20FDE
:102DC000EF0FED0FEA0FE70FE40FE10FDE0FDA0F61
:102DD000D60FD20FCE0FCA0FC50FC00FBB0FB60F45
:102DE000B10FAB0FA50F9F0F990F930F8D0F860F8C
:102DF0007F0F780F710F690F620F5A0F520F4A0F32
:102E0000410F390F300F270F1E0F150F0C0F020F38
:102E1000F80EEF0EE50EDA0ED00EC50EBB0EB00E9C
:102E2000A50E990E8E0E820E770E6B0E5F0E520E51
:102E3000460E3A0E2D0E200E130E060EF90DEB0D5A
:102E4000DE0DD00DC20DB40DA60D980D890D7B0DB4
:102E50006C0D5D0D4E0D3F0D300D210D110D020D50
:102E6000F20CE20CD20CC20CB20CA10C910C800C36
:102E7000700C5F0C4E0C3D0C2C0C1B0C0A0CF80B50
:102E8000E70BD50BC30BB20BA00B8E0B7C0B6A0BA5
:102E9000570B450B330B200B0E0BFB0AE90AD60A26
:102EA000C30AB00A9D0A8A0A770A640A510A3D0ACF
:102EB0002A0A170A030AF009DC09C909B509A20997
:102EC0008E097A09660953093F092B091709030975
:102ED000EF08DB08C708B3089F088B08770863086A
:102EE0004F083B0827081308FE07EA07D607C20762
:102EF000AE079A07860772075E074A07360722075A
:102F00000E07FA06E606D206BE06AA06970683064E
:102F10006F065B064806340621060D06FA05E6052F
:102F2000D305C005AC0599058605730560054D05FB
:102F30003A05270514050205EF04DD04CA04B804A8
:102F4000A604930481046F045D044B043A0428042E
:102F500016040504F303E203D103C003AF039E0389
:102F60008D037D036C035C034B033B032B031B03AB
:102F70000B03FB02EC02DC02CD02BE02AF02A00298
:102F80009102820274026502570249023B022D023D
:102F90001F0212020402F701EA01DD01D001C301A0
:102FA000B701AB019E01920186017B016F016401B3
:102FB00058014D01420138012D01230118010E0174
:102FC0000501FB00F100E800DF00D600CD00C400E1
:102FD000BC00B300AB00A3009B0094008C008500F4
:102FE0007E00770070006A0064005E0058005200A6
:102FF0004C00470042003D00380033002F002B00FA
:10300000270023001F001C001900160013001000E9
:103010000E000B0009000700060004000300020078
:10302000010000000000000000000000000000009F
:1030300001000200030004000600070009000B0065
:103040000E0010001300160019001C001F002300C2
:1030500027002B002F00330038003D0042004700BE
:103060004C00520058005E0064006A007000770057
:103070007E0085008C0094009B00A300AB00B30091
:10308000BC00C400CD00D600DF00E800F100FB006A
:1030900005010E01180123012D01380142014D01E6
:1030A000580164016F017B01860192019E01AB0111
:1030B000B701C301D001DD01EA01F70104021202E8
:1030C0001F022D023B02490257026502740282026E
:1030D0009102A002AF02BE02CD02DC02EC02FB02B2
:1030E0000B031B032B033B034B035C036C037D03AC
:1030F0008D039E03AF03C003D103E203F303050472
:10310000160428043A044B045D046F0481049304FC
:10311000A604B804CA04DD04EF040205140527055B
:103120003A054D056005730586059905AC05C00592
:10313000D305E605FA050D062106340648065B06AA
:103140006F0683069706AA06BE06D206E606FA06AC
:103150000E07220736074A075E07720786079A0797
:10316000AE07C207D607EA07FF0727084F08770808
:103170009F08C708EF0817093F0966098E09B509B6
:10318000DC09030A2A0A510A770A9D0AC30AE90AD6
:103190000E0B330B570B7C0BA00BC30BE70B0A0C6E
:1031A0002C0C4E0C700C910CB20CD20CF20C110DBC
:1031B000300D4E0D6C0D890DA60DC20DDE0DF90DF5
:1031C000130E2D0E460E5F0E770E8E0EA50EBB0E45
:1031D000D00EE50EF80E0C0F1E0F300F410F520FE0
:1031E000620F710F7F0F8D0F990FA50FB10FBB0FDE
:1031F000C50FCE0FD60FDE0FE40FEA0FEF0FF40F5F
:10320000F70FFA0FFC0FFD0FFE0FFD0FFC0FFA0F6B
:10321000F70FF40FEF0FEA0FE40FDE0FD60FCE0F0C
:10322000C50FBB0FB10FA50F990F8D0F7F0F710F3A
:10323000620F520F410F300F1E0F0C0FF80EE50EEC
:10324000D00EBB0EA50E8E0E770E5F0E460E2D0E07
:10325000130EF90DDE0DC20DA60D890D6C0D4E0D70
:10326000300D110DF20CD20CB20C910C700C4E0CF6
:103270002C0C0A0CE70BC30BA00B7C0B570B330B6E
:103280000E0BE90AC30A9D0A770A510A2A0A030AA1
:10329000DC09B5098E0966093F091709EF08C70857
:1032A0009F0877084F082708FE07D607AE0786074E
:1032B0005E0736070E07E606BE0697066F06480647
:1032C0002106FA05D305AC05860560053A05140507
:1032D000EF04CA04A60481045D043A041604F3034F
:1032E000D103AF038D036C034B032B030B03EC02E1
:1032F000CD02AF029102740257023B021F02040288
:10330000EA01D001B7019E0186016F015801420117
:103310002D0118010501F100DF00CD00BC00AB005C
:103320009B008C007E007000640058004C0042003E
:1033300038002F0027001F00190013000E0009009D
:10334000060003000100000000000000010003006F
:10335000060009000E00130019001F0027002F00AF
:10336000380042004C005800640070007E008C0061
:103370009B00AB00BC00CD00DF00F100050118018F
:103380002D01420158016F0186019E01B701D00154
:10339000EA0104021F023B02570274029102AF02CB
:1033A000CD02EC020B032B034B036C038D03AF0325
:1033B000D103F30316043A045D048104A604CA048D
:1033C000EF0414053A0560058605AC05D305FA053A
:1033D000210648066F069706BE06E6060E07360764
:1033E0005E078607AE07D607FF074F089F08EF085E
:1033F0003F098E09DC092A0A770AC30A0E0B570B0C
:10340000A00BE70B2C0C700CB20CF20C300D6C0DF9
:10341000A60DDE0D130E460E770EA50ED00EF80E7D
:103420001E0F410F620F7F0F990FB10FC50FD60FFF
:10343000E40FEF0FF70FFC0FFE0FFC0FF70FEF0F6E
:10344000E40FD60FC50FB10F990F7F0F620F410F19
:103450001E0FF80ED00EA50E770E460E130EDE0DC3
:10346000A60D6C0D300DF20CB20C700C2C0CE70B91
:10347000A00B570B0E0BC30A770A2A0ADC098E0928
:103480003F09EF089F084F08FE07AE075E070E07CB
:10349000BE066F062106D30586053A05EF04A6048D
:1034A0005D041604D1038D034B030B03CD0291027F
:1034B00057021F02EA01B701860158012D010501DB
:1034C000DF00BC009B007E0064004C003800270039
:1034D00019000E00060001000000010006000E00A9
:1034E0001900270038004C0064007E009B00BC00DF
:1034F000DF0005012D0158018601B701EA011F0215
:1035000057029102CD020B034B038D03D103160426
:103510005D04A604EF043A058605D30521066F066F
:10352000BE060E075E07AE07FF07C7088E09510AE1
:103530000E0BC30B700C110DA60D2D0EA50E0C0F4E
:10354000620FA50FD60FF40FFE0FF40FD60FA50FC5
:10355000620F0C0FA50E2D0EA60D110D700CC30BD6
:103560000E0B510A8E09C708FE0736076F06AC0519
:10357000EF043A048D03EC025702D0015801F10028
:103580009B00580027000900000009002700580090
:103590009B00F1005801D0015702EC028D033A0460
:1035A000EF04AC056F063607FF078E090E0B700C93
:1035B000A60DA50E620FD60FFE0FD60F620FA50E39
:1035C000A60D700C0E0B8E09FE076F06EF048D031F
:1035D000570258019B002700000027009B0058015C
:1035E00057028D03EF046F06FF0FFF0FFF0FFF0F52
:1035F000FF0FFF0FFF0FFF0FFF0FFF0FFF0FFF0F5B
:10360000FF0FFF0FFF0FFF0FFF0FFF0FFF0FFF0F4A
:10361000FF0FFF0FFF0FFF0FFF0FFF0FFF0FFF0F3A
:10362000FF0FFF0FFF0FFF0FFF0FFF0FFF0FFF0F2A
:10386000FF0FFF0FFF0FFF0F000000000000000020
:103870000000000000000000000000000000000048
:103880000000000000000000000000000000000038
:103890000000000000000000000000000000000028
:1038A0000000000000000000000000000000000018
:103AE0000000000000000000FF0FFF0FFF0FFF0F9E
:103AF000FF0FFF0FFF0FFF0FFF0FFF0FFF0FFF0F56
:103B0000FF0FFF0FFF0FFF0FFF0FFF0FFF0FFF0F45
:103B1000FF0FFF0FFF0FFF0FFF0FFF0FFF0FFF0F35
:103B2000FF0FFF0FFF0FFF0FFF0FFF0FFF0FFF0F25
:103B3000FF0FFF0FFF0FFF0FFF0FFF0FFF0FFF0F15
:103B4000FF0FFF0FFF0FFF0FFF0FFF0FFF0FFF0F05
:103B5000FF0FFF0FFF0FFF0FFF0FFF0FFF0FFF0FF5
:103B6000FF0FFF0FFF0FFF0FFF0FFF0FFF0FFF0FE5
:103B7000FF0FFF0FFF0FFF0FFF0FFF0FFF0FFF0FD5
:103B8000FF0FFF0FFF0FFF0FFF0FFF0FFF0FFF0FC5
:103B9000FF0FFF0FFF0FFF0FFF0FFF0FFF0FFF0FB5
:103BA000FF0FFF0FFF0FFF0FFF0FFF0FFF0FFF0FA5
:103BB000FF0FFF0FFF0FFF0FFF0FFF0FFF0FFF0F95
:103BC000FF0FFF0FFF0FFF0FFF0FFF0FFF0FFF0F85
:103BD000FF0FFF0FFF0FFF0FFF0FFF0FFF0FFF0F75
:103BE000FF0FFF0FFF0FFF0FFF0FFF0FFF0FFF0F65
:103BF000FF0FFF0FFF0FFF0FFF0FFF0FFF0FFF0F55
:103C0000FF0FFF0FFF0FFF0FFF0FFF0FFF0FFF0F44
:103C1000FF0FFF0FFF0FFF0FFF0FFF0FFF0FFF0F34
:103C2000FF0FFF0FFF0FFF0F00000000000000005C
:103C30000000000000000000000000000000000084
:103C40000000000000000000000000000000000074
:103C50000000000000000000000000000000000064
:103C60000000000000000000000000000000000054
:103C70000000000000000000000000000000000044
:103C80000000000000000000000000000000000034
:103C90000000000000000000000000000000000024
:103CA0000000000000000000000000000000000014
:103CB0000000000000000000000000000000000004
:103CC00000000000000000000000000000000000F4
:103CD00000000000000000000000000000000000E4
:103CE00000000000000000000000000000000000D4
:103CF00000000000000000000000000000000000C4
:103D000000000000000000000000000000000000B3
:103D100000000000000000000000000000000000A3
:103D20000000000000000000000000000000000093
:103D30000000000000000000000000000000000083
:103D40000000000000000000000000000000000073
:103D50000000000000000000000000000000000063
:103D60000000000000000000FF0FFF0FFF0FFF0F1B
:103D7000FF0FFF0FFF0FFF0FFF0FFF0FFF0FFF0FD3
:103D8000FF0FFF0FFF0FFF0FFF0FFF0FFF0FFF0FC3
:103D9000FF0FFF0FFF0FFF0FFF0FFF0FFF0FFF0FB3
:103DA000FF0FFF0FFF0FFF0FFF0FFF0FFF0FFF0FA3
:103DB000FF0FFF0FFF0FFF0FFF0FFF0FFF0FFF0F93
:103DC000FF0FFF0FFF0FFF0FFF0FFF0FFF0FFF0F83
:103DD000FF0FFF0FFF0FFF0FFF0FFF0FFF0FFF0F73
:103DE000FF0FFF0FFF0FFF0FFF0FFF0FFF0FFF0F63
:103DF000FF0FFF0FFF0FFF0FFF0FFF0FFF0FFF0F53
:103E0000FF0FFF0FFF0FFF0F00000000000000007A
:103E100000000000000000000000000000000000A2
:103E20000000000000000000000000000000000092
:103E30000000000000000000000000000000000082
:103E40000000000000000000000000000000000072
:103E50000000000000000000000000000000000062
:103E60000000000000000000000000000000000052
:103E70000000000000000000000000000000000042
:103E80000000000000000000000000000000000032
:103E90000000000000000000000000000000000022
:103EA0000000000000000000FF0FFF0FFF0FFF0FDA
:103EB000FF0FFF0FFF0FFF0FFF0FFF0FFF0FFF0F92
:103EC000FF0FFF0FFF0FFF0FFF0FFF0FFF0FFF0F82
:103ED000FF0FFF0FFF0FFF0FFF0FFF0FFF0FFF0F72
:103EE000FF0FFF0FFF0FFF0F00000000000000009A
:103EF00000000000000000000000000000000000C2
:103F000000000000000000000000000000000000B1
:103F100000000000000000000000000000000000A1
:103F20000000000000000000FF0FFF0FFF0FFF0F59
:103F3000FF0FFF0FFF0FFF0FFF0FFF0FFF0FFF0F11
:103F4000FF0FFF0FFF0FFF0F000000000000000039
:103F50000000000000000000000000000000000061
:103F6000000000000000000000000C001900260006
:103F700033003F004C005900660073007F008C0046
:103F80009900A600B300BF00CC00D900E600F30002
:103F9000FF000C011901260133013F014C015901B9
:103FA000660173017F018C019901A601B301BF0174
:103FB000CC01D901E601F301FF010C02190226022E
:103FC00033023F024C025902660273027F028C02E6
:103FD0009902A602B302BF02CC02D902E602F302A2
:103FE000FF020C031903260333033F034C03590359
:103FF000660372037F038C039903A603B203BF0316
:10400000CC03D903E603F203FF030C0419042604CE
:1040100032043F044C045904660472047F048C0487
:104020009904A604B204BF04CC04D904E604F20443
:10403000FF040C051905260532053F054C055905F9
:10404000660572057F058C059905A605B205BF05B5
:10405000CC05D905E605F205FF050C06190626066E
:1040600032063F064C065906660672067F068C0627
:104070009906A506B206BF06CC06D906E506F206E5
:10408000FF060C071907250732073F074C0759079A
:10409000650772077F078C079907A507B207BF0757
:1040A000CC07D907E507F207FF070C081908250810
:1040B00032083F084C085908650872087F088C08C8
:1040C0009908A508B208BF08CC08D908E508F20885
:1040D000FF080C091909250932093F094C0959093A
:1040E000650972097F098C099909A509B209BF09F7
:1040F000CC09D809E509F209FF090C0A180A250AB2
:10410000320A3F0A4C0A580A650A720A7F0A8C0A68
:10411000980AA50AB20ABF0ACC0AD80AE50AF20A26
:10412000FF0A0C0B180B250B320B3F0B4C0B580BDB
:10413000650B720B7F0B8C0B980BA50BB20BBF0B97
:10414000CC0BD80BE50BF20BFF0B0C0C180C250C51
:10415000320C3F0C4C0C580C650C720C7F0C8C0C08
:10416000980CA50CB20CBF0CCC0CD80CE50CF20CC6
:10417000FF0C0B0D180D250D320D3F0D4B0D580D7D
:10418000650D720D7F0D8B0D980DA50DB20DBF0D38
:10419000CB0DD80DE50DF20DFF0D0B0E180E250EF3
:1041A000320E3F0E4B0E580E650E720E7F0E8B0EAA
:1041B000980EA50EB20EBF0ECB0ED80EE50EF20E67
:1041C000FF0E0B0F180F250F320F3F0F4B0F580F1D
:1041D000650F720F7F0F8B0F980FA50FB20FBF0FD8
:1041E000CB0FD80FE50FF20FFF0FF20FE50FD80F2F
:1041F000CB0FBF0FB20FA50F980F8B0F7F0F720F52
:10420000650F580F4B0F3F0F320F250F180F0B0F75
:10421000FF0EF20EE50ED80ECB0EBF0EB20EA50E9F
:10422000980E8B0E7F0E720E650E580E4B0E3F0EC3
:10423000320E250E180E0B0EFF0DF20DE50DD80DEA
:10424000CB0DBF0DB20DA50D980D8B0D7F0D720D11
:10425000650D580D4B0D3F0D320D250D180D0B0D35
:10426000FF0CF20CE50CD80CCC0CBF0CB20CA50C5E
:10427000980C8C0C7F0C720C650C580C4C0C3F0C81
:10428000320C250C180C0C0CFF0BF20BE50BD80BA9
:10429000CC0BBF0BB20BA50B980B8C0B7F0B720BCF
:1042A000650B580B4C0B3F0B320B250B180B0C0BF3
:1042B000FF0AF20AE50AD80ACC0ABF0AB20AA50A1E
:1042C000980A8C0A7F0A720A650A580A4C0A3F0A41
:1042D000320A250A180A0C0AFF09F209E509D80969
:1042E000CC09BF09B209A50999098C097F0972098E
:1042F000650959094C093F093209250919090C09B1
:10430000FF08F208E508D908CC08BF08B208A508DC
:1043100099088C087F087208650859084C083F08FE
:104320003208250819080C08FF07F207E507D90726
:10433000CC07BF07B207A50799078C077F0772074D
:10434000650759074C073F073207250719070C0770
:10435000FF06F206E506D906CC06BF06B206A5069C
:1043600099068C067F067206660659064C063F06BD
:104370003206260619060C06FF05F205E605D905E4
:10438000CC05BF05B205A60599058C057F0572050C
:10439000660559054C053F053205260519050C052E
:1043A000FF04F204E604D904CC04BF04B204A6045A
:1043B00099048C047F047204660459044C043F047D
:1043C0003204260419040C04FF03F203E603D903A4
:1043D000CC03BF03B203A60399038C037F037203CC
:1043E000660359034C033F033203260319030C03EE
:1043F000FF02F302E602D902CC02BF02B302A60218
:1044000099028C027F027302660259024C023F023B
:104410003302260219020C02FF01F301E601D90161
:10442000CC01BF01B301A60199018C017F01730189
:10443000660159014C013F013301260119010C01AC
:10444000FF00F300E600D900CC00BF00B300A600D7
:1044500099008C007F007300660059004C003F00FB
:104460003300260019000C000000190033004C0036
:1044700066007F009900B300CC00E600FF00190140
:1044800033014C0166017F019901B301CC01E601C2
:10449000FF01190233024C0266027F029902B30245
:1044A000CC02E602FF02190333034C0366037F03C9
:1044B0009903B203CC03E603FF03190432044C044E
:1044C00066047F049904B204CC04E604FF041905D1
:1044D00032054C0566057F059905B205CC05E60554
:1044E000FF05190632064C0666067F069906B206D7
:1044F000CC06E506FF06190732074C0765077F075C
:104500009907B207CC07E507FF07190832084C08DE
:1045100065087F089908B208CC08E508FF08190962
:1045200032094C0965097F099909B209CC09E509E5
:10453000FF09180A320A4C0A650A7F0A980AB20A69
:10454000CC0AE50AFF0A180B320B4C0B650B7F0BEC
:10455000980BB20BCC0BE50BFF0B180C320C4C0C70
:10456000650C7F0C980CB20CCC0CE50CFF0C180DF4
:10457000320D4B0D650D7F0D980DB20DCB0DE50D78
:10458000FF0D180E320E4B0E650E7F0E980EB20EFA
:10459000CB0EE50EFF0E180F320F4B0F650F7F0F7E
:1045A000980FB20FCB0FE50FFF0FE50FCB0FB20F38
:1045B000980F7F0F650F4B0F320F180FFF0EE50E90
:1045C000CB0EB20E980E7F0E650E4B0E320E180EED
:1045D000FF0DE50DCB0DB20D980D7F0D650D4B0D4B
:1045E000320D180DFF0CE50CCC0CB20C980C7F0CA6
:1045F000650C4C0C320C180CFF0BE50BCC0BB20B02
:10460000980B7F0B650B4C0B320B180BFF0AE50A5E
:10461000CC0AB20A980A7F0A650A4C0A320A180ABA
:10462000FF09E509CC09B20999097F0965094C0917
:1046300032091909FF08E508CC08B20899087F0873
:1046400065084C0832081908FF07E507CC07B207D0
:1046500099077F0765074C0732071907FF06E5062C
:10466000CC06B20699067F0666064C063206190687
:10467000FF05E605CC05B20599057F0566054C05E5
:1046800032051905FF04E604CC04B20499047F0442
:1046900066044C0432041904FF03E603CC03B2039E
:1046A00099037F0366034C0332031903FF02E602FA
:1046B000CC02B30299027F0266024C023302190255
:1046C000FF01E601CC01B30199017F0166014C01B4
:1046D00033011901FF00E600CC00B30099007F0010
:1046E00066004C003300190000003300660099009A
:1046F000CC00FF00330166019901CC01FF013302B8
:1047000066029902CC02FF02330366039903CC03CD
:10471000FF03320466049904CC04FF0432056605E5
:104720009905CC05FF05320666069906CC06FF06FC
:10473000320765079907CC07FF0732086508990813
:10474000CC08FF08320965099909CC09FF09320A2A
:10475000650A980ACC0AFF0A320B650B980BCC0B42
:10476000FF0B320C650C980CCC0CFF0C320D650D58
:10477000980DCB0DFF0D320E650E980ECB0EFF0E71
:10478000320F650F980FCB0FFF0FCB0F980F650FF0
:10479000320FFF0ECB0E980E650E320EFF0DCB0DB5
:1047A000980D650D320DFF0CCC0C980C650C320C7D
:1047B000FF0BCC0B980B650B320BFF0ACC0A980A47
:1047C000650A320AFF09CC09990965093209FF080F
:1047D000CC08990865083208FF07CC0799076507D8
:1047E0003207FF06CC06990666063206FF05CC05A1
:1047F000990566053205FF04CC0499046604320469
:10480000FF03CC03990366033203FF02CC02990233
:1048100066023302FF01CC01990166013301FF00FA
:10482000CC0099006600330000007F00FF007F018C
:10483000FF017F02FF027F03FF037F04FF047F0568
:10484000FF057F06FF067F07FF077F08FF087F0938
:10485000FF097F0AFF0A7F0BFF0B7F0CFF0C7F0D08
:10486000FF0D7F0EFF0E7F0FFF0F7F0FFF0E7F0EDE
:10487000FF0D7F0DFF0C7F0CFF0B7F0BFF0A7F0AE4
:10488000FF097F09FF087F08FF077F07FF067F06F4
:10489000FF057F05FF047F04FF037F03FF027F0204
:1048A000FF017F01FF007F000000FF00FF01FF020A
:1048B000FF03FF04FF05FF06FF07FF08FF09FF0ACC
:1048C000FF0BFF0CFF0DFF0EFF0FFF0EFF0DFF0C88
:1048D000FF0BFF0AFF09FF08FF07FF06FF05FF04A4
:1048E000FF03FF02FF01FF00000006000C001300A1
:1048F00019001F0026002C00330039003F0046003D
:104900004C00530059005F0066006C007300790092
:104910007F0086008C00930099009F00A600AC00E9
:10492000B300B900BF00C600CC00D300D900DF003F
:10493000E600EC00F300F900FF0006010C01130192
:1049400019011F0126012C01330139013F014601E4
:104950004C01530159015F0166016C01730179013A
:104960007F0186018C01930199019F01A601AC0191
:10497000B301B901BF01C601CC01D301D901DF01E7
:10498000E601EC01F301F901FF0106020C0213023A
:1049900019021F0226022C02330239023F0246028C
:1049A0004C02530259025F0266026C0273027902E2
:1049B0007F0286028C02930299029F02A602AC0239
:1049C000B302B902BF02C602CC02D302D902DF028F
:1049D000E602EC02F302F902FF0206030C031303E2
:1049E00019031F0326032C03330339033F03460334
:1049F0004C03520359035F0366036C03720379038C
:104A00007F0386038C03920399039F03A603AC03E1
:104A1000B203B903BF03C603CC03D203D903DF0338
:104A2000E603EC03F203F903FF0306040C0412048B
:104A300019041F0426042C04320439043F044604DC
:104A40004C04520459045F0466046C047204790433
:104A50007F0486048C04920499049F04A604AC0489
:104A6000B204B904BF04C604CC04D204D904DF04E0
:104A7000E604EC04F204F904FF0406050C05120533
:104A800019051F0526052C05320539053F05460584
:104A90004C05520559055F0566056C0572057905DB
:104AA0007F0586058C05920599059F05A605AC0531
:104AB000B205B905BF05C605CC05D205D905DF0588
:104AC000E605EC05F205F905FF0506060C061206DB
:104AD00019061F0626062C06320639063F0646062C
:104AE0004C06520659065F0666066C067206790683
:104AF0007F0685068C06920699069F06A506AC06DB
:104B0000B206B906BF06C506CC06D206D906DF0630
:104B1000E506EC06F206F906FF0605070C07120784
:104B200019071F0725072C07320739073F074507D5
:104B30004C07520759075F0765076C07720779072B
:104B40007F0785078C07920799079F07A507AC0782
:104B5000B207B907BF07C507CC07D207D907DF07D8
:104B6000E507EC07F207F907FF0705080C0812082C
:104B700019081F0825082C08320839083F0845087D
:104B80004C08520859085F0865086C0872087908D3
:104B90007F0885088C08920899089F08A508AC082A
:104BA000B208B908BF08C508CC08D208D908DF0880
:104BB000E508EC08F208F908FF0805090C091209D4
:104BC00019091F0925092C09320939093F09450925
:104BD0004C09520959095F0965096C09720979097B
:104BE0007F0985098C09920999099F09A509AC09D2
:104BF000B209B809BF09C509CC09D209D809DF092A
:104C0000E509EC09F209F809FF09050A0C0A120A7C
:104C1000180A1F0A250A2C0A320A380A3F0A450ACE
:104C20004C0A520A580A5F0A650A6C0A720A780A24
:104C30007F0A850A8C0A920A980A9F0AA50AAC0A7A
:104C4000B20AB80ABF0AC50ACC0AD20AD80ADF0AD1
:104C5000E50AEC0AF20AF80AFF0A050B0C0B120B24
:104C6000180B1F0B250B2C0B320B380B3F0B450B76
:104C70004C0B520B580B5F0B650B6C0B720B780BCC
:104C80007F0B850B8C0B920B980B9F0BA50BAC0B22
:104C9000B20BB80BBF0BC50BCC0BD20BD80BDF0B79
:104CA000E50BEC0BF20BF80BFF0B050C0C0C120CCC
:104CB000180C1F0C250C2C0C320C380C3F0C450C1E
:104CC0004C0C520C580C5F0C650C6C0C720C780C74
:104CD0007F0C850C8C0C920C980C9F0CA50CAC0CCA
:104CE000B20CB80CBF0CC50CCC0CD20CD80CDF0C21
:104CF000E50CEB0CF20CF80CFF0C050D0B0D120D76
:104D0000180D1F0D250D2B0D320D380D3F0D450DC6
:104D10004B0D520D580D5F0D650D6B0D720D780D1D
:104D20007F0D850D8B0D920D980D9F0DA50DAB0D73
:104D3000B20DB80DBF0DC50DCB0DD20DD80DDF0DC9
:104D4000E50DEB0DF20DF80DFF0D050E0B0E120E1D
:104D5000180E1F0E250E2B0E320E380E3F0E450E6E
:104D60004B0E520E580E5F0E650E6B0E720E780EC5
:104D70007F0E850E8B0E920E980E9F0EA50EAB0E1B
:104D8000B20EB80EBF0EC50ECB0ED20ED80EDF0E71
:104D9000E50EEB0EF20EF80EFF0E050F0B0F120FC5
:104DA000180F1F0F250F2B0F320F380F3F0F450F16
:104DB0004B0F520F580F5F0F650F6B0F720F780F6D
:104DC0007F0F850F8B0F920F980F9F0FA50FAB0FC3
:104DD000B20FB80FBF0FC50FCB0FD20FD80FDF0F19
:104DE000E50FEB0FF20FF80F00000C001900260082
:104DF00033003F004C005900660073007F008C00B8
:104E00009900A600B300BF00CC00D900E600F30073
:104E1000FF000C011901260133013F014C0159012A
:104E2000660173017F018C019901A601B301BF01E5
:104E3000CC01D901E601F301FF010C02190226029F
:104E400033023F024C025902660273027F028C0257
:104E50009902A602B302BF02CC02D902E602F30213
:104E6000FF020C031903260333033F034C035903CA
:104E7000660372037F038C039903A603B203BF0387
:104E8000CC03D903E603F203FF030C041904260440
:104E900032043F044C045904660472047F048C04F9
:104EA0009904A604B204BF04CC04D904E604F204B5
:104EB000FF040C051905260532053F054C0559056B
:104EC000660572057F058C059905A605B205BF0527
:104ED000CC05D905E605F205FF050C0619062606E0
:104EE00032063F064C065906660672067F068C0699
:104EF0009906A506B206BF06CC06D906E506F20657
:104F0000FF060C071907250732073F074C0759070B
:104F1000650772077F078C079907A507B207BF07C8
:104F2000CC07D907E507F207FF070C081908250881
:104F300032083F084C085908650872087F088C0839
:104F40009908A508B208BF08CC08D908E508F208F6
:104F5000FF080C091909250932093F094C095909AB
:104F6000650972097F098C099909A509B209BF0968
:104F7000CC09D809E509F209FF090C0A180A250A23
:104F8000320A3F0A4C0A580A650A720A7F0A8C0ADA
:104F9000980AA50AB20ABF0ACC0AD80AE50AF20A98
:104FA000FF0A0C0B180B250B320B3F0B4C0B580B4D
:104FB000650B720B7F0B8C0B980BA50BB20BBF0B09
:104FC000CC0BD80BE50BF20BFF0B0C0C180C250CC3
:104FD000320C3F0C4C0C580C650C720C7F0C8C0C7A
:104FE000980CA50CB20CBF0CCC0CD80CE50CF20C38
:104FF000FF0C0B0D180D250D320D3F0D4B0D580DEF
:10500000650D720D7F0D8B0D980DA50DB20DBF0DA9
:10501000CB0DD80DE50DF20DFF0D0B0E180E250E64
:10502000320E3F0E4B0E580E650E720E7F0E8B0E1B
:10503000980EA50EB20EBF0ECB0ED80EE50EF20ED8
:10504000FF0E0B0F180F250F320F3F0F4B0F580F8E
:10505000650F720F7F0F8B0F980FA50FB20FBF0F49
:10506000CB0FD80FE50FF20F0000190033004C00F2
:1050700066007F009900B300CC00E600FF00190134
:1050800033014C0166017F019901B301CC01E601B6
:10509000FF01190233024C0266027F029902B30239
:1050A000CC02E602FF02190333034C0366037F03BD
:1050B0009903B203CC03E603FF03190432044C0442
:1050C00066047F049904B204CC04E604FF041905C5
:1050D00032054C0566057F059905B205CC05E60548
:1050E000FF05190632064C0666067F069906B206CB
:1050F000CC06E506FF06190732074C0765077F0750
:105100009907B207CC07E507FF07190832084C08D2
:1051100065087F089908B208CC08E508FF08190956
:1051200032094C0965097F099909B209CC09E509D9
:10513000FF09180A320A4C0A650A7F0A980AB20A5D
:10514000CC0AE50AFF0A180B320B4C0B650B7F0BE0
:10515000980BB20BCC0BE50BFF0B180C320C4C0C64
:10516000650C7F0C980CB20CCC0CE50CFF0C180DE8
:10517000320D4B0D650D7F0D980DB20DCB0DE50D6C
:10518000FF0D180E320E4B0E650E7F0E980EB20EEE
:10519000CB0EE50EFF0E180F320F4B0F650F7F0F72
:1051A000980FB20FCB0FE50F00003F007F00BF004C
:1051B000FF003F017F01BF01FF013F027F02BF02ED
:1051C000FF023F037F03BF03FF033F047F04BF04CD
:1051D000FF043F057F05BF05FF053F067F06BF06AD
:1051E000FF063F077F07BF07FF073F087F08BF088D
:1051F000FF083F097F09BF09FF093F0A7F0ABF0A6D
:10520000FF0A3F0B7F0BBF0BFF0B3F0C7F0CBF0C4C
:10521000FF0C3F0D7F0DBF0DFF0D3F0E7F0EBF0E2C
:10522000FF0E3F0F7F0FBF0F00007F00FF007F01C9
:10523000FF017F02FF027F03FF037F04FF047F055E
:10524000FF057F06FF067F07FF077F08FF087F092E
:10525000FF097F0AFF0A7F0BFF0B7F0CFF0C7F0DFE
:10526000FF0D7F0EFF0E7F0F00000000000000000A
:1052700001020304060708090000000001020304FC
:10528000A0520008000000205C0000003C2700083D
:10529000FC5200085C0000201C0600004C2700089F
:1052A0008002000040010000A0000000400000005B
:1052B000200000008002000040010000A00000006B
:1052C00040000000200000008002000040010000BB
:1052D000A00000004000000020000000800200004C
:1052E00040010000A000000040000000200000007D
:0C52F000000000000000000000127A0026
:04000005080000BD32
:00000001FF
