:020000040800F2
:1000000030380020D1000008CD230008F721000877
:1000100000000000000000000000000000000000E0
:100020000000000000000000000000004B24000859
:100030000000000000000000492400084D240008D2
:10004000E3000008E3000008E3000008E300000804
:10005000E3000008E3000008E3000008E3000008F4
:10006000E3000008E300000889070008E300000837
:10007000E3000008E3000008E3000008E3000008D4
:10008000E3000008E3000008E3000008E3000008C4
:10009000E3000008E3000008E3000008E3000008B4
:1000A000E3000008E3000008E3000008A12C0008BA
:1000B000E3000008E3000008E30000080348854669
:1000C00000F0C8FA00480047C1330008303800206B
:1000D0000448804704480047FEE7FEE7FEE7FEE7E6
:1000E000FEE7FEE7D9240008BD00000830B50B4646
:1000F000014600202022012409E00D46D5409D4202
:1001000005D31D469540491B254695404019154687
:10011000521E002DF1DC30BD10B5202A04DB08464C
:10012000203AD040002110BD0B46D340D0402024BF
:10013000A21A91400843194610BD03460B439B0782
:1001400003D009E008C9121F08C0042AFAD203E04C
:100150000B780370401C491C521EF9D27047D2B272
:1001600001E00270401C491EFBD270470022F6E7F6
:1001700010B513460A4604461946FFF7F0FF20461D
:1001800010BD0000F0B507460846584087B0C00FC4
:10019000049048000E46590040084908BC1A88419E
:1001A00005D2384631461E4617460B4602465800D1
:1001B000400810434CD0300D039040055900400DCD
:1001C000490D0590401A0290402872DA1803012167
:1001D000000B09050843019004980092002805D0FF
:1001E00001995242002088410092019002984021DA
:1001F0000A1A0199009800F0ABF905460C466B46C7
:1002000007CB00F0B5F9C0197141039A0E0D002318
:10021000D71756401A467A40164344D0049A002A0B
:100220002DD0029A012A039A15DC1205C01A9141B9
:1002300001263605001C7141D20F059ED20700939E
:10024000019202962A46234600F0B2F907B0F0BDAB
:1002500038463146FAE71605224A0F46B218C01A48
:10026000B74101210905001C4F4100187F4111468B
:1002700018187941E20F10436D19644113E0E20749
:100280006D0815436408C2071443039A012612053A
:10029000C01A91413605001C7141CE074008304319
:1002A0004908C01851412A46234600F074F9CDE7A9
:1002B000FFE7049801224000C117121A00238B4166
:1002C00004983146C417381AA141EEE730B401242E
:1002D000E407634030BC55E730B40124E4076140D3
:1002E00030BC4FE70000E0FFF0B51FB488B00B99B9
:1002F0000998002448400999C00F4900490809910C
:10030000C0070B990090490049080B91099908987A
:10031000A64608431CD00B990A98084318D00998A0
:1003200001244000420D4800410D099824050003B6
:10033000000B204309900B980003000B20430B9007
:1003400050181C494018002201901446104605E040
:10035000002001460DB0F0BD032801DA034600E09D
:1003600003239C46C11A0AAE0AE05F0008ADED5BAC
:100370004F00F75B7D430027AA187C41491C5B1E98
:100380006145F2DD410004AB5A522104120C0A43CC
:10039000240C401C0828DFDB01980290009970466D
:1003A00001910090059B049A0799069800F000F9C6
:1003B000D0E700000DFCFFFFF0B50C465C4085B0B7
:1003C000E40FE40703944C000026640859009446A7
:1003D000490802460296224321D062460A431ED0B3
:1003E0006200570D4A000E032303550D01240246F7
:1003F0002C492405781B1B0B360B4018234326433E
:10040000614600901C46501AB44103D30098401C2A
:10041000009002E0921800985B41002803DA002067
:10042000014605B0F0BD00200121090507468646BA
:1004300011E064461D46141BB54106D36546521BA8
:10044000B341744607430C43A646CD07400849080C
:10045000284392185B4105460D43EAD110461843E4
:1004600013D06046194650407140084306D060469C
:10047000101AB34106D20122002306E00022012314
:10048000DB0702E00122D2435310009874460105B5
:10049000381C6141029C039D0019694100F07BF802
:1004A000BFE70000FD0300000EB5054902910021E1
:1004B00000910A460B46019100F07AF803B000BDA6
:1004C000330400004A0009030123090B1B051943EB
:1004D000094B10B5520D9A4201DA002010BD064BAF
:1004E00034339A4203DC9A1AFFF716FE10BD034913
:1004F0005118884010BD0000FF030000CDFBFFFF36
:1005000010B5002904DB0124E40740428C41214658
:10051000002B04DB1C460123DB075242A3418B4224
:1005200000D1824210BD000010B5002904DB012477
:10053000E40740428C412146002B04DB1C4601238A
:10054000DB075242A341994200D1904210BD000006
:1005500010B5202A04DB0146203A9140002010BD4E
:10056000914020239C1A0346E3401943904010BD5C
:1005700010B5202A06DBCB170846203A1041C117D8
:100580000B4306E00B461341D0402024A21A9140B1
:100590000843194610BD10B5002B08DA0024401C92
:1005A000614192185B411A4301D14008400010BDDF
:1005B000F0B51FB482B005460C0003D0084602F027
:1005C00077FB02E002F074FB2030024600902146E7
:1005D0002846FFF7BDFF049B059A04460F461843C3
:1005E0001143084314D0184610431BD000984021F3
:1005F0000A1A18460599FFF78FFD05460E46009A20
:1006000005990498FFF7A4FF084305D0012004E0F2
:100610002046394607B0F0BD0020C11705430E4300
:100620002C43374300990E986305401A7905E40A74
:1006300000220C43FD0A0A3002D500200146E9E7FA
:100640000105101969410C9C0D9D00196941FFF7C6
:10065000A2FFDFE7064C0125064E05E0E36807CC64
:100660002B430C3C98471034B442F7D3FFF72AFDD4
:10067000484100086841000870B54B005B0803431F
:100680000BD04B005C0D002633466542B341D417B6
:10069000AD1AA34102DB0020014670BD12053018DF
:1006A000514170BD0EB5C217C10F5040CA07401866
:1006B0000021054B0293019200910A460B46FFF779
:1006C00077FF03B000BD00003304000070B5CD0F0C
:1006D0004A0009030123090B1B0519430B4BED07C6
:1006E0000024520D9A4201DA002070BD074B3433CA
:1006F0009A4203DC9A1AFFF70FFD02E004495118F1
:1007000088402C43F1D0404270BD0000FF03000040
:10071000CDFBFFFF70B50446656A284600F0A2F8DD
:100720000120287170BD70B50446656A284600F046
:100730006BF80120287170BD70B505466C6A2069A0
:10074000042108432061204600F08EF8012020712A
:1007500070BD70B505466C6A2069042108432061AC
:10076000204600F053F80120207170BD70B504469A
:10077000656A284600F077F870BD70B50446656A72
:10078000284600F042F870BD10B5024800F047FA64
:1007900010BD00002C00002010B504460D49206853
:1007A00088420BD20C4A2168881A1421FFF79EFC5C
:1007B0008000206408480838E0630AE0054A2168A0
:1007C000881A1421FFF792FC800020640148083841
:1007D000E06310BD080402400800024030B5012467
:1007E000056CAC40C56B6C60046863604468102C99
:1007F00004D10468A2600468E16003E00468A160B9
:100800000468E26030BD7047704770477047000071
:1008100070B503460024002500BF5879012801D196
:10082000022070BD0120587100BF022018711868A5
:1008300004680B4890402646864334464E68086854
:100840003043054628469040044318680460012060
:10085000187100BF0020587100BF00BFE1E7000021
:10086000FE0F000070477047704710B50446002C1B
:1008700001D1012010BD2079002803D160712046EC
:1008800000F008F802202071002020610120207172
:100890000020EFE710B586B00446142101A8FFF749
:1008A00065FC2F492068884257D100BF2D48C06998
:1008B0000121490708432B49C8610846C06949041A
:1008C0000840009000BF00BF00BF264840690913E0
:1008D0000843244948610846406901214904084009
:1008E000009000BF00BF1020019003200290002064
:1008F000039001A90920C00600F098FA1A481B4984
:100900000860102048600021184881608021C16083
:100910004900016189004161202181610021C1619B
:1009200000F0F6F9002801D0FFF76DFF00BF0E4878
:100930005030806A0F21090288430B495031886288
:100940000846806A8915084307495031886200BF0C
:1009500000BF0648A060446200BF06B010BD0000A2
:100960000074004000100240300002402C000020C3
:10097000024600BF5079012801D1022070470120B2
:10098000507100BF022010711068006801238B4075
:1009900018431368186000290CD1106800683C23C4
:1009A00018403C2813D1106840680123184313688D
:1009B00058600CE0106800680F239B0418409842B0
:1009C00005D110684068022318431368586001205D
:1009D000107100BF0020507100BF00BFCEE70000C3
:1009E000FFB581B004460D4616460A9F00200090D0
:1009F00000BF6079012802D1022005B0F0BD0120BE
:100A0000607100BF02202071002D24D13948A168F7
:100A100088623948A168C8623848A16808632068BC
:100A2000006801210903084321680860002F04D0F1
:100A3000042F06D0082F0CD107E020680830009062
:100A400008E020680C30009004E02068103000902E
:100A500000E000BF24E02A48E16888622948E16894
:100A6000C8622948E1680863206800680121090715
:100A7000084321680860002F04D0042F06D0082FF7
:100A80000CD107E020681430009008E0206818308E
:100A9000009004E020681C30009000E000BF00BF20
:100AA000002D0DD120680068012149030843216809
:100AB0000860A0683146049B009A00F05BF90CE0E6
:100AC0002068006801214907084321680860E06840
:100AD0003146049B009A00F04DF92068006801211E
:100AE000A94008432168086000BF0020607100BF72
:100AF00000BF82E7150700086D07000839070008E6
:100B0000270700087B070008530700080246106803
:100B1000006801238B40984313681860012010710E
:100B20000020704770B504460D4600262068006816
:100B300001210903A94088432168086020680168F1
:100B40000120A840814320680160002D0BD1A068DE
:100B500000F01DF80646206800680121490388431B
:100B6000216808600AE0E06800F011F80646206895
:100B7000006801214907884321680860002E02D0DF
:100B80000420207101E001202071304670BD014633
:100B9000086800680E2290430A68106008680068C0
:100BA000400840000A68106001200A6C9040CA6B3F
:100BB000506001222120425400BF002220204254D4
:100BC00000BF0020704770B5044600252120005D5D
:100BD000022803D00420A06301251EE020680068DD
:100BE0000E218843216808602068006840084000A2
:100BF000216808600120216C8840E16B4860012178
:100C00002120015500BF00212020015500BF606B4D
:100C1000002802D02046616B8847284670BD70B519
:100C20000446E06B0568206806680420216C884053
:100C3000284000281BD004203040002817D020680E
:100C4000006820210840002805D1206800680421A0
:100C50008843216808600420216C8840E16B48606B
:100C6000E06A002852D02046E16A88474EE0022020
:100C7000216C88402840002823D0022030400028E2
:100C80001FD02068006820210840002808D1206873
:100C900000680A218843216808600121212001554C
:100CA0000220216C8840E16B486000BF00212020B9
:100CB000015500BFA06A002828D02046A16A8847B5
:100CC00024E00820216C8840284000281ED00820FD
:100CD000304000281AD0206800680E21884321681F
:100CE00008600120216C8840E16B48600120A0630E
:100CF00001212120015500BF00212020015500BF06
:100D0000206B002802D02046216B884770BD000070
:100D100070B504460025002C01D1012070BD0221D0
:100D2000212001552068056811480540A1686068C8
:100D30000843E16808432169084361690843A169E0
:100D40000843E16908430543206805602046FFF732
:100D500023FD0020A062E06220636063A0630121A4
:100D6000212001550021202001550020D6E7000058
:100D70000FC0FFFFF8B504460D4616461F4600207B
:100D8000009000BF2020005D012801D10220F8BDA5
:100D900001212020015500BF2120005D01282DD117
:100DA0000221212001550020A0632068006840082E
:100DB0004000216808603B46324629462046FFF73E
:100DC0000DFDE06A002806D0206800680E21084367
:100DD000216808600BE0206800680A210843216848
:100DE0000860206800680421884321680860206842
:100DF0000068012108432168086006E000BF002167
:100E00002020015500BF022000900098BFE731B5B7
:100E100000F00AF90546009C601C00D0641C00F03C
:100E200003F9401BA042FAD338BD000078B5034651
:100E3000002200240020E3E0012696400D683540A2
:100E40002C46002C7ED04D68022D02D04D68122D0C
:100E500015D1D508AE001D462035A8595507EE0E10
:100E60000F25B5400646AE4330465607F60E0D69CF
:100E7000B5402843D508AD001E462036705118688D
:100E800056000325B5400646AE4330460D79AD0702
:100E9000AD0F5600B540284318604D68012D08D0AD
:100EA0004D68022D05D04D68112D02D04D68122DD0
:100EB00018D1986856000325B5400646AE43304623
:100EC0005600CD68B5402843986058680125954084
:100ED0000646AE43304610264D6835402D099540F4
:100EE00028435860D86856000325B5400646AE43EF
:100EF000304656008D68B5402843D8600126360735
:100F00004D683540B5427AD100BF404DAD690126EC
:100F100035433E4EB5613546AD69ED07ED0F0095A1
:100F200000BF00BF3A4D9608B600A85995072E0F8E
:100F30000F25B5400646AE4330460925ED06AB42C7
:100F400003D100E05BE0002514E0324DAB4201D15B
:100F500001250FE0304DAB4201D102250AE02F4DB3
:100F6000AB4201D1032505E02D4DAB4201D1042553
:100F700000E005259607360FB5402843244D960816
:100F8000B600A851274D28680546A54328460126E6
:100F900036044D683540B54202D105462543284602
:100FA000204D286068680546A5432846012676043A
:100FB0004D683540B54202D1054625432846194DB6
:100FC0006860A8680546A5432846012636054D6891
:100FD0003540B54202D1054625432846114DA8604B
:100FE000E8680546A5432846012676054D68354044
:100FF000B54202D10546254328460A4DE860521CF9
:101000000D68D540002D00D016E778BD00100240D5
:10101000080001400004004800080048000C004897
:1010200000100048000401400148006870470000BB
:101030000C00002002480168491C01607047000054
:101040000C00002010B50648016810221143016011
:10105000002000F007F800F017F8002010BD000095
:101060000020024010B5044600F0FEF97D21C900C1
:10107000FFF73CF800F088FD00222146501E00F0EA
:101080002FF8002010BD000008B500BF0D48806992
:10109000012108430B49886108468069C007C00FD9
:1010A000009000BF00BF00BF0846C06909040843A4
:1010B0000449C8610846C06909040840009000BF9F
:1010C00000BF08BD0010024000BFC206D20E0121C1
:1010D0009140024A116000BF7047000000E100E04B
:1010E00070B504460D4616462946204601F070F9B3
:1010F00070BD0000F8B50446002600250121090452
:101100002068084088427AD100276048C0690903F6
:10111000084000280DD100BF5C48C06908435B4906
:10112000C8610846C06909040840009000BF00BFBC
:10113000012757480068FF2101310840002816D1D7
:1011400053480068084352490860FFF76DFF0646A0
:1011500006E0FFF769FF801B642801D90320F8BD72
:101160004B480068FF21013108400028F1D0474872
:10117000006A0321090208400546002D2DD0606851
:101180000840A84229D04148006A884305463F48A4
:10119000006A0121090408433C4908620846006AC4
:1011A0000121090488433949086208460562E807B5
:1011B000C00F002811D0FFF737FF064607E0FFF702
:1011C00033FF801B3349884201D90320C7E72F48EA
:1011D000006A022108400028F1D02C48006A03214F
:1011E000090288436168084328490862012F05D134
:1011F0000846C069090488432449C86100BF2078B3
:10120000C007C00F002807D02048006B800880006E
:10121000A16808431D49086302212068084002288C
:1012200008D11A48006B032109048843E168084388
:10123000164908630121890420680840884208D1C2
:101240001248006B032189048843216908430F4930
:101250000863202120680840202807D10B48006B34
:101260001021884361690843084908630121890204
:1012700020680840884207D10448006B4021884319
:10128000A169084301490863002068E70010024093
:10129000007000408813000070B504460D4600261B
:1012A0006C480068C007C00FA8420ED269480068A9
:1012B0004008400028436749086008460068C007A6
:1012C000C00FA84201D0012070BD02212068084053
:1012D000022807D160484068F0218843A16808438C
:1012E0005D4948602078C007C00F00287ED0606844
:1012F000012808D158480068012149040840002805
:1013000021D10120E0E76068022808D15248006836
:10131000012149060840002815D10120D4E7606862
:10132000032808D14C48406B0121090408400028DB
:1013300009D10120C8E74848006802210840002878
:1013400001D10120C0E744484068800880006168FE
:10135000084341494860FFF767FE06466068012878
:101360000FD107E0FFF760FE801B3C49884201D99E
:101370000320A9E7384840680C2108400428F1D12F
:1013800034E0606802280FD107E0FFF74DFE801BB4
:101390003249884201D9032096E72F4840680C2142
:1013A00008400828F1D121E0606803280FD107E048
:1013B000FFF73AFE801B2949884201D9032083E7C1
:1013C000254840680C2108400C28F1D10EE007E0C8
:1013D000FFF72AFE801B2149884201D9032073E7C9
:1013E0001D4840680C2108400028F1D119480068C8
:1013F000C007C00FA8420ED9164800684008400038
:1014000028431449086008460068C007C00FA84276
:1014100001D0012058E7042120680840042808D1A1
:101420000D484068072109028843E16808430A49DA
:10143000486000F031F808494968F0221140090974
:10144000074A515CC840074908600020FFF70AFEC0
:10145000002039E7002002400010024088130000FD
:10146000104000081000002001480068704700008C
:101470001000002000B5FFF7F7FF05494968072273
:1014800012021140090A034A515CC84000BD000025
:101490000010024020400008F0B589B02FA001469E
:1014A0000EC9C06805AC0EC4089030A001460EC934
:1014B000C06801AC0EC4049000240026002700255B
:1014C000002000902D4844680C20204000283DD08A
:1014D000042804D0082805D00C2836D132E028484A
:1014E000009036E00F2080042040800C05A90D5CA0
:1014F0002248C06A0007000F01A90E5C0320C00348
:10150000204001210904884206D131461C48FEF7DB
:10151000EDFD6843074613E00320C003204003218C
:10152000C903884206D131461648FEF7DFFD6843FD
:10153000074605E031461248FEF7D8FD68430746E6
:10154000009706E00F48009003E000BF0C480090B1
:1015500000BF00BF009809B0F0BD00000203040501
:10156000060708090A0B0C0D0E0F101001020304E8
:1015700005060708090A0B0C0D0E0F10001002409B
:1015800000127A00006CDC02F8B5044600252078D1
:10159000C007C00F002872D0FA4840680C210840EC
:1015A00004280CD0F74840680840082813D1F548B3
:1015B0004068490308400121090488420BD1F148E1
:1015C000006801214904084000286BD060680028A9
:1015D00068D10120F8BD00BF6068012807D1E94843
:1015E0000068012109040843E649086031E06068A9
:1015F00000280ED1E3480068012109048843E1492D
:10160000086008460068012189048843DD490860B4
:101610001FE0606805280ED1DA48006801218904BE
:101620000843D849086008460068012109040843B6
:10163000D44908600DE0D3480068012109048843BB
:10164000D049086008460068012189048843CD49D3
:10165000086000BF6068002812D0FFF7E5FC05466F
:1016600006E0FFF7E1FC401B642801D90320B1E745
:10167000C44800680121490408400028F1D011E065
:10168000FFF7D2FC054606E0FFF7CEFC401B6428BE
:1016900001D903209EE7BB480068012149040840A6
:1016A0000028F1D1022120680840022862D1B54803
:1016B00040680C21084000280CD0B248406808401F
:1016C00008281CD1AF484068490308400121C903DC
:1016D000884214D1AB48006802210840002804D099
:1016E000E068012801D0012074E7A6480068F821CD
:1016F00088432169C9000843A24908603AE0E068CC
:10170000002820D09F480068012108439D490860B7
:10171000FFF78AFC054606E0FFF786FC401B02281F
:1017200001D9032056E797480068022108400028A5
:10173000F2D094480068F82188432169C900084321
:101740009049086016E08F480068400840008D49C5
:101750000860FFF769FC054606E0FFF765FC401BE3
:10176000022801D9032035E7864800680221084095
:101770000028F2D1082120680840082831D1E0690A
:10178000002817D07F48406A012108437D494862FC
:10179000FFF74AFC054606E0FFF746FC401B02281F
:1017A00001D9032016E77748406A02210840002843
:1017B000F2D016E07348406A400840007149486220
:1017C000FFF732FC054606E0FFF72EFC401B02281F
:1017D00001D90320FEE66B48406A02210840002838
:1017E000F2D1042120680840042871D10026654800
:1017F000C0698906084000280DD100BF6148C06952
:1018000008436049C8610846C0690904084000905F
:1018100000BF00BF01265C480068FF21013108407D
:10182000002816D158480068084357490860FFF758
:10183000FBFB054606E0FFF7F7FB401B642801D9D8
:101840000320C7E650480068FF2101310840002806
:10185000F1D000BFA068012806D14A48006A0121E2
:101860000843484908622BE0A06800280CD145488D
:10187000006A40084000434908620846006A0421A3
:101880008843404908621BE0A06805280CD13D4808
:10189000006A042108433B4908620846006A0121A6
:1018A0000843384908620BE03648006A40084000A7
:1018B000344908620846006A0421884331490862B5
:1018C00000BFA068002813D0FFF7AEFB054608E074
:1018D00029E0FFF7A9FB401B2C49884201D90320CE
:1018E00078E62848006A022108400028F1D011E07B
:1018F000FFF79AFB054607E0FFF796FB401B2349DD
:10190000884201D9032065E61E48006A022108408A
:101910000028F1D1012E05D11A48C069310788434A
:101920001849C86100BF10212068084010285FD105
:10193000606901282CD11348406B042108431149E8
:1019400048630846406B012108430E494863FFF78E
:101950006BFB054606E0FFF767FB401B022801D939
:10196000032037E60748406B022108400028F2D0E8
:101970000448406BF8218843A169C9000843014924
:10198000486335E0001002400070004088130000FA
:101990006069401D00280FD17A48406B04218843BC
:1019A000784948630846406BF8218843A169C9001B
:1019B0000843744948631BE07248406B04210843A4
:1019C000704948630846406B400840004863FFF791
:1019D0002BFB054606E0FFF727FB401B022801D939
:1019E0000320F7E56748406B022108400028F2D148
:1019F000202120680840202852D1624840680C21EC
:101A000008400C280AD05F4840680840082811D1D7
:101A10005C4840684903084088420BD15948406BF4
:101A200001210904084000283AD0206A012837D053
:101A30000120CFE5206A002819D05248406B0121CF
:101A4000090408434F494863FFF7EEFA054606E0EC
:101A5000FFF7EAFA401B022801D90320BAE54948FA
:101A6000406B0121090408400028F1D018E04548E6
:101A7000406B01210904884342494863FFF7D4FAC7
:101A8000054606E0FFF7D0FA401B022801D90320E3
:101A9000A0E53C48406B0121090408400028F1D131
:101AA000606A00286CD0374840680C21084008283C
:101AB00064D0606A022847D13248006801210906D3
:101AC000884330490860FFF7AFFA054606E0FFF7A4
:101AD000ABFA401B022801D903207BE529480068A6
:101AE0000121490608400028F1D100BF2548C06AFD
:101AF00000090001216B08432249C862A16AE06A1B
:101B00000843204949687B22D203914308431D4979
:101B1000486000BF084600680121090608431949CA
:101B20000860FFF781FA054606E0FFF77DFA401BE3
:101B3000022801D903204DE5124800680121490619
:101B400008400028F1D01BE00E480068012109067A
:101B500088430C490860FFF767FA054606E0FFF77F
:101B600063FA401B022801D9032033E505480068C9
:101B70000121490608400028F1D101E0012029E5B2
:101B8000002027E50010024070B504462546681E77
:101B90000949884201D901200CE0681E07494861C3
:101BA0000321081F00F014FC00200449886107206D
:101BB0000861002070BD0000FFFFFF0000E000E0B2
:101BC000024600BF3C20805C012801D10220704702
:101BD00001233C20835400BF02233D20835410681E
:101BE00040687023984313685860106840680B6819
:101BF00018431368586010688068802398431368FE
:101C00009860106880684B681843136898600123D7
:101C10003D20835400BF00233C20835400BF00209C
:101C2000D5E710B50446002C01D1012010BD3D20A0
:101C3000005D002805D100213C200155204600F020
:101C40000DF802213D200155211D206800F080FC87
:101C500001213D2001550020E8E7000008B50122E0
:101C60009207016891420DD100BF0749C96901225D
:101C70001143054AD1611146C969C907C90F0091CD
:101C800000BF00BF08BD0000001002400146022254
:101C90003D20425408680068012210430A68106021
:101CA00001223D20425400207047F8B504460D46FD
:101CB000002600BF3C20005D012801D10220F8BDB4
:101CC00001213C20015500BF02213D200155206823
:101CD00086687721304688430646FF210902304650
:101CE0008843064620688660286850283ED00CDC71
:101CF000202863D004DC002856D0102868D158E092
:101D0000302860D0402863D144E0602838D0702863
:101D10000DD001210903401A02D0401A58D117E012
:101D200020688068C008C0002168886051E0EB68C6
:101D30006A68A968206800F063FC206886687721DB
:101D4000304688430646772006432068866040E098
:101D5000EB686A68A968206800F052FC2068806817
:101D60000121890308432168886032E0EA686968D4
:101D7000206800F061FC5021206800F050FC28E051
:101D8000EA686968206800F072FC6021206800F051
:101D900046FC1EE0EA686968206800F04DFC4021BE
:101DA000206800F03CFC14E00021206800F037FCC3
:101DB0000FE01021206800F032FC0AE020212068AA
:101DC00000F02DFC05E03021206800F028FC00E048
:101DD00000BF00BF01213D20015500BF00213C2074
:101DE000015500BF00206AE770477047F8B5044608
:101DF0002068C569206806682807000F00900098D1
:101E000000280BD120202840002807D02020304077
:101E1000002803D0204600F036FDF8BD2068876812
:101E2000009800287ED0F807C00F002804D1FF20BA
:101E3000213030400028F5D0E807C00F00280BD033
:101E4000FF2001303040002806D0012021680862C0
:101E5000E06E01210843E0660220284000280AD0F5
:101E6000F807C00F002806D0022021680862E06E43
:101E700004210843E0660420284000280AD0F8071F
:101E8000C00F002806D0042021680862E06E0221FD
:101E90000843E0660820284000280ED0202030406B
:101EA000002803D1F807C00F002806D008202168B9
:101EB0000862E06E08210843E066E06E002841D029
:101EC00020202840002806D020203040002802D0C2
:101ED000204600F0D8FCE06E08210840002805D11B
:101EE0002068806840210840002826D0204600F065
:101EF000A9FC2068806840210840002819D020688B
:101F00008068884321688860606E00280DD026486C
:101F1000616E4863606EFEF756FE002812D0606E58
:101F2000416B00E00FE088470CE02046FFF75DFFC3
:101F300008E02046FFF759FF04E02046FFF755FF71
:101F40000020E06669E7012000052840002811D044
:101F500001208005384000280CD0012000052168B0
:101F600008622021692001556A2001552046FFF7AB
:101F70003BFF52E780202840002807D080203040D7
:101F8000002803D0204600F019FE46E740202840F4
:101F9000002807D040203040002803D0204600F021
:101FA00062FC3AE700BF38E72D28000810B5044668
:101FB000002C01D1012010BDA069002800D000E054
:101FC00000BF6920005D002805D10021682001556F
:101FD000204600F02DF82421692001552068006872
:101FE0004008400021680860204600F093FC01286A
:101FF00000D1E0E7606A002802D0204600F052FBE2
:10200000206840680921C902884321684860206827
:1020100080682A218843216888602068006801213F
:10202000084321680860204600F0B4FBC3E70000C5
:1020300010B586B00446142101A8FEF797F81E4992
:102040002068884236D100BF1C488069012189037D
:1020500008431A49886108468069012189030840BC
:10206000009000BF00BF00BF14484069C90008438A
:10207000124948610846406901214904084000901E
:1020800000BF00BF03204002019002200290002008
:102090000390032004900120059001A90920C006A7
:1020A000FEF7C4FE002211461B20FFF719F81B2083
:1020B000FFF70AF806B010BD0038014000100240DA
:1020C00010B503466A20C05C20286AD1002901D0DF
:1020D000002A01D1012010BD012424039868A042E8
:1020E00008D11869002805D1C807C00F002801D001
:1020F0000120F0E700BF6820C05C012801D1022068
:10210000E9E701246820C45400BF59655820C25231
:102110005A20C25200BF24039868A0420AD118690D
:10212000002803D1204C5C20C45220E0FF245C2016
:10213000C4521CE0986800280AD11869002803D10D
:10214000FF245C20C45212E07F245C20C4520EE0C5
:10215000012424079868A04209D11869002803D1F6
:102160007F245C20C45202E03F245C20C45200BFA4
:102170000020D86622246A20C45400BF00246820AE
:10218000C45400BF18688068012420431C68A06004
:1021900018680068FF24213420431C682060002058
:1021A00099E7022097E70000FF01000010B5044600
:1021B0000B4800780D2803D101200A49087009E076
:1021C00001220749084801F057FE012802D00120EA
:1021D00006490870012202490548FFF771FF10BD4A
:1021E000000000200100002020010020020000204B
:1021F000B0000020704700BFFEE700001CB50020C3
:10220000009001900B480C4908600846FEF72DFB32
:10221000002801D0FEF7F7FA24200090002001905A
:10222000002269460448FEF7F3FA002801D0FEF7C1
:10223000EAFA1CBD007400401800002008B500BF79
:102240000A48406901210843084948610846406935
:10225000C007C00F009000BF00BF002211460A2037
:10226000FEF73EFF0A20FEF72FFF08BD00100240D8
:1022700000B587B0142102A8FDF778FF00BF2348FE
:1022800040690121C9040843204948610846406962
:102290000121C9040840019000BF00BF00BF1B48D6
:1022A0004069C9000843194948610846406901214D
:1022B00089050840019000BF00BF00BF1348406976
:1022C0004911084311494861084640690121490400
:1022D0000840019000BF00BF081102900C48039015
:1022E0000020049002A90B48FEF7A0FD0C200290EC
:1022F000022003900020049005900120069002A97E
:102300000920C006FEF792FD07B000BD0010024094
:10231000000021100008004800B587B0002003909D
:1023200004900590069001900290012080071549C5
:102330000860642048600021124881600E21C1605D
:10234000002101618161FFF76CFC002801D0FEF7DC
:102350005AFA01200003039003A90A48FFF7A5FCDD
:10236000002801D0FEF74FFA2020019000200290B3
:1023700001A90448FFF724FC002801D0FEF743FA26
:1023800007B000BD7000002010B50E480E4908606F
:10239000E1204002486000210B488160C16001617A
:1023A0000C21416100218161C16101620020064967
:1023B00048620846FFF7FAFD002801D0FEF723FA2D
:1023C00010BD000000380140B00000207047000040
:1023D00010B5002819DA1A4A03071B0F083B9B089F
:1023E0009B00D2588307DC0EFF23A3409A438B0740
:1023F0001B0E8407E40EA3401A43114B0407240F5D
:10240000083CA408A4001A5118E00E4A03231B023A
:10241000D21883089B00D2588307DC0EFF23A34009
:102420009A438B071B0E8407E40EA3401A43054B07
:10243000032424021B198408A4001A5110BD0000B3
:102440001CED00E000E100E07047704710B5FEF7BA
:10245000F1FD10BD00B599B034210CA8FDF786FE42
:102460000020089009900A900B901C2101A8FDF70C
:102470007DFE02200C9001200F9010201090022071
:102480001590810316910521C90417910121189116
:102490000CA8FFF779F8002801D0FEF7B4F907205F
:1024A00008900220099000200A900B90012108A8B2
:1024B000FEF7F2FE002801D0FEF7A5F901200190F9
:1024C0000020039001A8FEF715FE002801D0FEF7BA
:1024D0009AF919B000BD00001948006801210843AD
:1024E0001749086008464068164908401449486082
:1024F0000846006814490840114908600846006809
:102500000121890488430E490860084640683F213C
:10251000090488430A4948600846C06A0009000166
:10252000C8620846006B0949084005490863084627
:10253000406B4008400048630020886070470000FE
:10254000001002400CB8FF08FFFFF6FEACFEF0FFE3
:1025500010B500220268244B984206D001239B0745
:10256000984202D0214B984205D170241346A343D0
:102570001A464B681A431C4B984212D001239B0702
:1025800098420ED0194B98420BD0194B984208D064
:10259000184B984205D0184B984202D0174B9842DE
:1025A00006D1032424021346A3431A46CB681A43D8
:1025B00080241346A3434C6923431A4602608B6868
:1025C000C3620B688362084B984208D0094B98425B
:1025D00005D0094B984202D0084B984201D10B69B3
:1025E00003630123436110BD002C0140000400403F
:1025F00000200040004001400044014000480140EC
:1026000070B50C4600218168FF2636020D46B543A1
:1026100029461D02154325432943816070BD10B52D
:102620000A460021816870240B46A34319460723FC
:1026300013431943816010BD70B50B461446002149
:102640000022026A056A6D086D0005628169F02644
:102650000D46B5432946250129430A261546B543AB
:102660002A4615461D432A468161026270BD70B537
:102670000B46144600210022056A1026B543056268
:102680008169026A0F2636030D46B54329462503A4
:102690002943A0261546B5432A461D012A438161D8
:1026A000026270BD818CC907C90F002908D001687A
:1026B0004968012252049143826A114302685160C1
:1026C0000222416A1140002907D001684968D203FB
:1026D0009143C26A1143026851600422416A114069
:1026E000002907D00168496812049143026B114325
:1026F000026851600822416A1140002907D0016830
:10270000496812039143426B1143026851601022E1
:10271000416A1140002907D001688968120291437B
:10272000826B1143026891602022416A11400029A6
:1027300007D00168896812029143C26B1143026895
:1027400091604022416A1140002915D00168496812
:1027500092039143026C11430268516001221205F9
:10276000016C914208D101684968032252059143E6
:10277000426C1143026851608022416A1140002975
:1027800007D00168496812039143826C11430268C3
:102790005160704738B5044600250020E066FEF71A
:1027A00043FC05461D492068884207D01C49206823
:1027B000884203D01B492068884223D120680068E2
:1027C0000821084008280BD117482B46002289040D
:1027D0000090204600F02BFA002801D0032038BDDD
:1027E000206800680421084004280BD10E482B46BD
:1027F000002209050090204600F019FA002801D0B7
:102800000320ECE72021692001556A20015500BF13
:1028100000216820015500BF0020E0E7003801409A
:102820000044004000480040FFFFFF0170B505462E
:102830006C6A00215A200153522001532046FFF7B1
:10284000D4FA70BD01680968FF2221329143026801
:102850001160016889684908490002689160202276
:102860006A210A54704710B5044620680068402168
:102870008843216808602021692001552046FFF720
:10288000B9FC002010BDF8B504465C20075B6A2047
:10289000005D222836D12068858C01210903A068BB
:1028A00088420AD12069002807D1666D2846384041
:1028B0003080606D801C606505E0F8B22840626D74
:1028C000511C616510705A20005B401E81B25A2075
:1028D0000153002914D120680068FF212131884369
:1028E000216808602068806840084000216888608E
:1028F00020216A2001552046FFF758FC0020F8BD32
:102900000020FCE72068806908210843216888616D
:102910000220F4E7FEB5044600251026002700201B
:10292000029001902169A068084361690843E16948
:1029300008430546206800689349084028432168F9
:10294000086020684068032109038843E168084360
:1029500021684860216AA0690843054620688068AC
:102960000B210902884328432168886000BF8749FA
:102970002068884217D18648006B8007800F0028A6
:1029800006D0012808D0022808D0032808D101E089
:10299000002607E0022605E0042603E0082601E001
:1029A000102600BF5CE07B49206888421AD1784835
:1029B000006B032109040840002808D00121090404
:1029C000401A08D0401A08D0401A08D101E0002669
:1029D00007E0022605E0042603E0082601E01026B1
:1029E00000BF3DE06C49206888421AD16848006BFE
:1029F000032189040840002808D001218904401AD5
:102A000008D0401A08D0401A08D101E0002607E09B
:102A1000022605E0042603E0082601E0102600BF98
:102A20001EE05E492068884201D1002618E05C491A
:102A30002068884201D1002612E05A492068884265
:102A400001D100260CE058492068884201D10026B7
:102A500006E056492068884201D1002600E0102691
:102A600000BF0121C903E069884249D1042E20D06A
:102A700004DC002E07D0022E32D111E0082E25D022
:102A8000102E2DD12DE0FEF7F5FC400061684908BD
:102A9000401800906168FDF729FB80B2029023E0A6
:102AA00061684A08424BD018FDF720FB80B20290C3
:102AB0001AE0FEF7F1FC40006168490840180090F8
:102AC0006168FDF713FB80B202900DE061684A086F
:102AD00001231B04D018FDF709FB80B2029003E02C
:102AE00000BF0120019000BF00BF3249029808409A
:102AF000074602980007400F07432068C76040E080
:102B0000042E21D004DC002E07D0022E34D111E097
:102B1000082E26D0102E2FD12FE0FEF7ABFC6168D7
:102B20004908401800906168FDF7E0FA80B221681A
:102B3000C86025E061684A081F4BD018FDF7D6FA37
:102B400080B22168C8601BE0FEF7A6FC61684908F6
:102B5000401800906168FDF7C9FA80B22168C8602A
:102B60000EE061684A080123DB03D018FDF7BEFAC6
:102B700080B22168C86003E000BF0120019000BF5F
:102B800000BF0198FEBD0000F369FFEF003801406F
:102B9000001002400044004000480040004C00404B
:102BA000005000400014014000180140001C01408A
:102BB0000024F400F0FF000000127A0001466920B2
:102BC000405C212831D15220405A00280DD108689C
:102BD0000068802398430B681860086800684023E9
:102BE00018430B6818600020704701231B03886896
:102BF00098420CD10869002809D1CA6C1088C00518
:102C0000C00D0B681885C86C801CC86405E0CB6CCF
:102C1000581CC86418780B6818855220405A401E0A
:102C200083B2522043520020DEE70220DCE7FFB5EA
:102C300081B004460D4617460A9E24E0701C002809
:102C400021D0002E05D0FEF7EFF90499401AB042CA
:102C500019D920680068FF21A131884321680860E4
:102C60002068806840084000216888602021692031
:102C700001556A20015500BF00216820015500BFA1
:102C8000032005B0F0BD2068C0692840A84201D1EA
:102C9000012000E00020B842D0D00020F1E7000081
:102CA00010B50248FFF7A2F810BD0000B0000020E8
:102CB0002021020C01D010211046020A01D010463A
:102CC0000839020901D01046091F820801D01046B8
:102CD000891E420801D0881E7047081A7047F0B458
:102CE000040C8BB2264682B25E430D0C1046370CA4
:102CF0005843360480190021794116466E43370C3B
:102D000036048019794126466E438919F0BC704714
:102D10004900CA020243100000D004204A0D01D02D
:102D200001221043044A490D914201D10221084376
:102D3000012800D105207047FF070000F7B596B0C5
:102D400014460021A160D160179909914D00CD4929
:102D50006D088D4205DC179961602060002019B074
:102D6000F0BDC949C94E8D4238DAD32709997F058C
:102D70000029C74A1799334617DDFDF7A7FAB54270
:102D800006D0C44AC44BFDF7A1FA6160206009E097
:102D90003A46C14BFDF79AFAC04AC14BFDF796FA85
:102DA00061602060012019B0F0BDFDF7EBF9B5427C
:102DB00006D0B84AB84BFDF7E5F96160206009E03C
:102DC0003A46B54BFDF7DEF9B44AB54BFDF7DAF9F3
:102DD000616020600020C04319B0F0BDB1498D4250
:102DE000179977DC490049080746AF4AAF4B049171
:102DF000FDF77AFA0022AE4BFDF7C4F9FDF766FC49
:102E00000A90FDF74FFCA24A334603910290FDF76A
:102E10006BFA3A46049BFDF75FFA06460F469D4A59
:102E20009D4B03990298FDF75FFA2A0D01250C923C
:102E300032463B46FDF750FA61602060032D39D0E1
:102E40004800410D0C98401A6901691811398142F6
:102E500030DA98492801794408960D9008180497AB
:102E60004368026803990298FDF73EFA02460B4652
:102E70000791069004990898FDF728FA06460F4630
:102E8000049B089AFDF728FA079B069AFDF71EFA9D
:102E900005918949049079440D984018C368826867
:102EA00003990298FDF720FA059B049AFDF70EFAA4
:102EB0006D1CBDE70998002809DA01226068D20775
:102EC000504060600A9819B04042F0BD02E00A9894
:102ED00019B0F0BD09030122090B12050E908918E3
:102EE0001798109140007549400D40184111C006D7
:102EF000C00E0D9113902021081A14900020069006
:102F000005250790139800280D980CD040198200D1
:102F10006B487844875813998F401018416814986B
:102F2000C1400F4304E04019810066487844475887
:102F300010993846FFF7D3FE06460A9138460E9997
:102F4000FFF7CDFE8A190A9B8A4201D2012100E0D7
:102F50000021C9188C46AF00694679188B684E6805
:102F6000C318834201D2012000E0002096193618D0
:102F7000002802D0964202D903E0964201D20120F5
:102F800000E00020624612184E6068468B60C25115
:102F900028466D1E0028B5DC01210298490740181B
:102FA000800F1390029805998000039E049D0B9159
:102FB000FDF778FB074630460891FDF775FA1D22AC
:102FC000D243FDF759FB10900F912846FDF76CFA9C
:102FD0003D22D243FDF750FB0E900D910B98FDF76B
:102FE00063FA5D22D243FDF747FB0B910C900D9BDA
:102FF0000E9AFDF7C7F80F9B109AFDF7C3F83A46F3
:10300000089BFDF7BFF800250E463A462846089B68
:10301000FDF75CF90F9B109AFDF758F90D9B0E9A7E
:10302000FDF754F90B9B0C9AFDF756F9264A274BEE
:10303000FDF75AF907460D91254A264B3146284699
:10304000FDF752F93A460D9BFDF79CF80F46152205
:103050000C9092061D4B31462846FDF745F93B463C
:103060000C9AFDF78FF8179A002A05DA139A524244
:1030700013920122D207514061602060139819B069
:10308000F0BD0000FB21E93F7CD90240FB21F93F64
:10309000000040543163621A61B4D03D7370032E56
:1030A0008A19A33BFB21394183C8C96D305FE43FD6
:1030B0000000E03FFE110000BE1100000BFCFFFF0E
:1030C0007211000058110000182D4454FB21F93DE5
:1030D0003326A611460B113CF0B51FB44E00F92063
:1030E0007608800584B00F46864204DA0498FDF71E
:1030F000EDFA002838D0049A3B4610461946FDF7F1
:10310000F3F8044602462C480D460B460621784447
:1031100000F05CF822462B46FDF7E6F8019100909E
:103120003946079B069A0498FDF7DEF80746029198
:1031300020462946019B009AFDF7D6F83A46029BA5
:10314000FDF7C4F8074600220091D24320462946E5
:10315000FDF792FA194A96420ADA3A46009BFDF7C1
:10316000B5F80022164B23E00020154909B0F0BD48
:10317000144A964202DD0024134D03E00122520559
:10318000B51A002422462B46FDF7A0F80646019109
:1031900022462B4600200A49FDF798F80D460446C2
:1031A0003A463046009B0199FDF790F822462B469F
:1031B000FDF792F809B0F0BD160F00003333D33F8E
:1031C0000000F03F0000E93F0000D23FF8B50446A0
:1031D0004F1EC8000838211815461E460868496861
:1031E0003A4606239A4310D02A463346FDF77CF828
:1031F0003A46D200083AA3181A687F1E5B68FCF7AB
:10320000C1FF06223B469343EED1022F23D0042F69
:1032100011D0062F2FD12A463346FDF765F8E36A11
:10322000A26AFCF7AFFF2A463346FDF75DF8636AF2
:10323000226AFCF7A7FF2A463346FDF755F8E369F3
:10324000A269FCF79FFF2A463346FDF74DF86369F4
:103250002269FCF797FF2A463346FDF745F8E368F5
:10326000A268FCF78FFF2A463346FDF73DF86368F6
:103270002268FCF787FFF8BDF0B51FB4054648008B
:103280000C46F9214008890586B088420BDA2846A9
:103290002146FFF73DFD042801D100F071F82846D2
:1032A00021460BB0F0BD2A46234610461946FDF7CD
:1032B0001BF806460F462A462346FDF715F80090F0
:1032C0002548019132463B4605217844FFF77EFFB1
:1032D000029010980391002829D0204A204B019990
:1032E0000098FDF701F80490059168460FC8FCF7B7
:1032F000FBFF002201910090D24309990898FDF745
:10330000BBF9019B009AFCF7E1FF32463B46FCF714
:10331000EBFF099B089AFCF7D9FF059B049AFCF781
:10332000D5FF2A462346FCF7D7FF0BB0F0BD0B466E
:1033300030463946029AFCF7D7FF084A084BFCF79B
:1033400021FF019B009AFCF7CFFF2A462346FCF79A
:1033500019FF0BB0F0BD0000520E00004955555545
:103360005555C5BF10B50122FDF786F910BD0022E5
:1033700010B5134610461146FDF71EF810BD0000AB
:10338000034A10B500201107FDF776F910BD0000C3
:1033900001FDFFFF02E008C8121F08C1002AFAD190
:1033A00070477047002001E001C1121F002AFBD1C5
:1033B00070470000014908607047000014000020B9
:1033C00086B0FDF73FFEFFF745F8FEF751FFFEF729
:1033D00035FFFEF713FFFEF79FFFFEF7D5FF01ACA9
:1033E000FF2201321849194800F0F2FC0122184965
:1033F0001848FEF765FE1848FEF748FC22E017481B
:103400000078012814D100BF2146641C01220F4816
:1034100000F0F0FC0028F7D101AC01A800F022F880
:10342000054601A9284600F03CF800200B49087029
:103430000B480078012802D10020094908700120BA
:10344000FDF7E5FCDBE70000300100202001002053
:1034500000000020B00000207000002001000020CB
:103460000200002010B5024600201178022900DA7F
:1034700010BD5378012B04D0022B06D0032B0CD1A6
:1034800007E0092900D1012008E0022900D102202B
:1034900004E0102900D1032000E000BF00BF00BFFE
:1034A000E6E770B505460C46012D04D0022D07D085
:1034B000032D0FD109E02646304600F0E1F90AE07D
:1034C0002646304600F046FC05E02646304600F031
:1034D000ABFA00E000BF00BF70BD0000F0B51FB444
:1034E0008EB016461F46294929480C910D9000219F
:1034F0000C460D4600200B9026490F9B0E9AFCF7B8
:103500005BFF0991089034E032463B460020224997
:10351000FCF7DCFE002201239B0701910090FCF7E1
:103520004BFF32463B460591049020462946FCF766
:10353000DBFE01910090099B089AFCF73DFF039187
:103540000290059B049AFCF71DFE07910690FCF77C
:10355000B9FF81B20B9842001A9881522046294641
:103560000D9B0C9AFCF70EFE04460D460B98401C72
:103570000B9020462946099B089AFCF7C1FFC3D34C
:103580000B98401E1B99086013B0F0BDFCA9F1D246
:103590004D62003F0000F03F00FEAF40F0B51FB4A9
:1035A00092B006460F462A492A48109111900021F0
:1035B0000C460D4600200F9032463B462649FCF74C
:1035C000FBFE0D910C9035E0244A254B30463946E0
:1035D000FCF78AFE22462B4601910090FCF784FE00
:1035E000039102901D9B1C9AFCF7CCFD0591049061
:1035F00000F084FC07910690159B149AFCF774FE6A
:103600000022184B09910890FCF7BCFD0B910A9021
:10361000FCF758FF81B20F9842001E988152204655
:103620002946119B109AFCF7ADFD04460D460F98F4
:10363000401C0F90204629460D9B0C9AFCF760FF1A
:10364000C2D30F98401E1F99086017B0F0BD00004C
:10365000FCA9F1D24D62003F0000F03F182D445408
:10366000FB21194000FC9F40F0B51FB48AB01646FC
:103670001F46264926480891099000210C460D4610
:103680000020079023490B9B0A9AFCF795FE0591B1
:1036900004902EE0002201239B0705990498FCF773
:1036A0008BFE22462B4601910090FCF73DFF06D28F
:1036B0000022194B30463946FCF764FD05E03246DE
:1036C0003B4600201449FCF701FE03910290FCF7F1
:1036D000F9FE81B207984200169881522046294689
:1036E000099B089AFCF74EFD04460D460798401CBE
:1036F000079020462946059B049AFCF701FFC9D391
:103700000798401E179908600FB0F0BDFCA9F1D2D0
:103710004D62003F0000F03F00FC9F40F0B51FB439
:1037200090B016461F46524952480E910F90002104
:103730000C460D4600200D904F49119B109AFCF746
:103740003BFE0B910A903BE032463B4600204B4942
:10375000FCF7BCFD002201239B0703910290FCF7BC
:103760002BFE002201239B07079106902046294645
:10377000FCF7BAFD32463B4601910090FCF7B4FDE0
:10378000039102900B9B0A9AFCF716FE0591049098
:10379000079B069AFCF7F6FC09910890FCF792FE4D
:1037A00081B20D9842001C988152204629460F9BF9
:1037B0000E9AFCF7E7FC04460D460D98401C0D9050
:1037C000002201239B070B990A98FCF7F5FD22467E
:1037D0002B4609910890FCF7A7FEB5D33BE0324693
:1037E0003B4600202549FCF771FD002201239B0781
:1037F00003910290FCF7E0FD002201239B07079153
:10380000069020462946FCF76FFD32463B46019163
:103810000090FCF769FD039102900B9B0A9AFCF75C
:10382000CBFD05910490079B069AFCF7ABFC099130
:103830000890FCF747FE81B20D9842001C98815217
:10384000204629460F9B0E9AFCF740FD04460D4684
:103850000D98401C0D900022134620462946FCF787
:1038600063FEBCD30D98401E1D99086015B0F0BDD5
:10387000FCA9F1D24D62003F0000F03F00FEAF40D6
:1038800070B588B0044600216448FDF73FF9002177
:103890006248FDF747F9A078002806D001282ED00D
:1038A000022856D003287CD17FE0A27963791102E7
:1038B00019430846FCF7F8FD07910690227AE37950
:1038C000110219430846FCF7EFFD05910490227997
:1038D000E378110219430846FCF7E6FD05460E465B
:1038E0004F48504902910390079906980191009022
:1038F00028463146059B049AFFF750FE7DE0A279E9
:103900006379110219430846FCF7CEFD0791069032
:10391000227AE379110219430846FCF7C5FD0591A7
:1039200004902279E378110219430846FCF7BCFDA4
:1039300005460E463A483B4902910390079906987E
:103940000191009028463146059B049AFFF78CFEB2
:1039500053E0A2796379110219430846FCF7A4FDEC
:1039600007910690227AE379110219430846FCF781
:103970009BFD059104902279E378110219430846D2
:10398000FCF792FD05460E46254826490291039014
:10399000079906980191009028463146059B049AA4
:1039A00000E028E0FFF7BAFE27E0A2796379110270
:1039B00019430846FCF778FD05460E46227AE3795E
:1039C000110219430846FCF76FFD07910690227912
:1039D000E378110219430846FCF766FD059104904F
:1039E0000F481049019600950291039004A80FC852
:1039F000FFF774FD01E008B070BD00BF002107486B
:103A0000FCF7B6FF002000900548064A0021036835
:103A10000248FCF7E5FF00BFEDE7000018000020BA
:103A20000400002030020020F0B589B004460021D7
:103A3000C348FDF76BF80021C148FDF773F8A07883
:103A4000002806D001282ED0022856D003287CD189
:103A50007FE0E179A279090211430846FCF724FDD1
:103A600007910690617A227A090211430846FCF711
:103A70001BFD0591049061792279090211430846E2
:103A8000FCF712FD05460E46AE48AF490291039081
:103A9000079906980191009028463146059B049AA3
:103AA000FFF77CFD81E0E179A27909021143084624
:103AB000FCF7FAFC07910690617A227A0902114319
:103AC0000846FCF7F1FC059104906179227909021E
:103AD00011430846FCF7E8FC05460E4699489A490A
:103AE000029103900799069801910090284631466B
:103AF000059B049AFFF7B8FD57E0E179A279090226
:103B000011430846FCF7D0FC07910690617A227AAF
:103B1000090211430846FCF7C7FC0591049061793E
:103B20002279090211430846FCF7BEFC05460E4601
:103B30008448854902910390079906980191009065
:103B400028463146059B049A00E02CE0FFF7E6FD8D
:103B50002BE0E179A279090211430846FCF7A4FCA5
:103B600007910690617A227A090211430846FCF710
:103B70009BFC059104906179227909021143084662
:103B8000FCF792FC05460E466E486F490291039081
:103B9000079906980191009028463146059B049AA2
:103BA000FFF79CFC01E009B0F0BD00BFE078002801
:103BB00006D001282AD0022852D003287AD17AE0F0
:103BC000617B227B090211430846FCF76DFC054628
:103BD0000E46E17BA27B090211430846FCF764FC18
:103BE00007910690E17AA27A090211430846FCF790
:103BF0005BFC05910490554855490196009502914A
:103C0000039004A80FC8FFF7C9FC7BE0617B227B0F
:103C1000090211430846FCF747FC07910690E17B37
:103C2000A27B090211430846FCF73EFC0591049073
:103C3000E17AA27A090211430846FCF735FC0546F1
:103C40000E46424842490291039007990698019115
:103C5000009028463146059B049AFFF705FD51E088
:103C6000617B227B090211430846FCF71DFC07918A
:103C70000690E17BA27B090211430846FCF714FC85
:103C800005460E46E17AA27A090211430846FCF77E
:103C90000BFC059104902D492D4803910290079942
:103CA00006982A4633460191009005990498FFF73B
:103CB00035FD27E025E0617B227B090211430846A0
:103CC000FCF7F2FB05460E46E17BA27B090211439D
:103CD0000846FCF7E9FB07910690E17AA27A09020F
:103CE00011430846FCF7E0FB05910490174818497A
:103CF000019600950291039004A80FC8FFF7EEFB10
:103D000000E050E700BF00F047F908900F48006856
:103D10000C490968884202DD0C48006801E0094846
:103D20000068074600210648FCF722FE00203B46BB
:103D3000009001460248089AFCF752FE00BF32E7A5
:103D4000180000200400002030020020080000209D
:103D5000301B002010B5044600210448FCF7D6FEB5
:103D600000210248FCF7DEFE10BD00001800002014
:103D700030B50146002902D00868002801D1002092
:103D800030BDCA688B689A4201D14C6806E0934204
:103D900001D99C1A02E0D51A4868441B601EEFE75F
:103DA00030B50146002902D00868002801D1002062
:103DB00030BDCA688B689A4201D1002406E09A425D
:103DC00001D9D41A02E09D1A4868441B2046EFE747
:103DD0000346002B03D0002A01D0002901D1002086
:103DE00070470020186058609860D8605A60196069
:103DF0000120F5E7F7B582B0044615460398019017
:103E0000002C04D02068002801D0002D02D1002011
:103E100005B0F0BD6168A068884201D30020A060B1
:103E20002046FFF7BDFF0746AF4203D2002F00D167
:103E3000EEE73D46A1686068461AAE4200D92E46BC
:103E4000A2682068811832460198FCF776F9A068CC
:103E50008019A060AD1B002D06D02168019A901931
:103E60002A46FCF76AF9A5606168A068884201D318
:103E70000020A0607019CBE7F7B582B00446154664
:103E800003980190002C04D02068002801D0002D58
:103E900002D1002005B0F0BD6168E068884201D31E
:103EA0000020E0602046FFF763FF0746AF4203D2E1
:103EB000002F00D1EEE73D46E1686068461AAE4249
:103EC00000D92E46E2682168881832460199FCF72D
:103ED00034F9E0688019E060AD1B002D06D0019A2E
:103EE00091192A462068FCF728F9E5606168E068C6
:103EF000884201D30020E0607019CBE700B54A008A
:103F0000234B520887B09A4203DC002213460092EA
:103F100029E0204B9A4208D1002808D10120FFF760
:103F200049FAFFF724FA07B000BD9A4203DBFFF716
:103F300019FA07B000BD02AAFEF700FF8107890F3A
:103F4000012000290CD0012911D0022915D002A886
:103F50000FC8FFF7C1F80122D207514007B000BDDA
:103F6000009002A80FC8FFF787F907B000BD02A8AC
:103F70000FC8FFF7B1F807B000BD009002A80FC846
:103F8000FFF77AF90122D207514007B000BD0000C7
:103F9000FB21E93F0000F07FFCB518490968184D86
:103FA0002D68A94206DD15490A6815490B681548B0
:103FB000154C05E012490A6810490B681248114C6B
:103FC0000021002517E09D4200D100254E00865BB0
:103FD0006F00E75BF619F70F0096BE197610019691
:103FE0000A4F019EBE4201D93E4601964F00019EF6
:103FF000C653491C6D1C9142E5DBFCBD0800002046
:1040000004000020301B002030020020FF0F0000C1
:104010000000000000000000010203040607080978
:1040200000000000010203044C5555555555A53FAD
:104030007751C1166CC156BF9015CB19A001FA3E3D
:10404000AD529C804F7E92BEC4B1B4BD9EEE213E67
:10405000D43888BEE9FAA8BD00004054FB21F93FDE
:104060003163621A61B4D03D0000601A61B4D03D82
:104070007370032E8A19A33B0000002E8A19A33BFC
:10408000C14920259A837B39000000000000000010
:104090006E83F9A22915444ED15727FCC0DD34F5B3
:1040A000999562DB4190433CAB6351FE61C5BBDE39
:1040B0003A6E24B7E0D24D42EA2E49061C92D1094D
:1040C0001CEB1DFE3EA729B1F53582E88444BB2ECA
:1040D00026709CE9417E5FB439D69139F439538317
:1040E0008B5F849C3B28F9BDFF97F81F0F9805DE76
:1040F0008B112FEF1F6D0A5ACF7E366DB709CB2774
:10410000663F464F2DEA5F9EC7BA27757BF1E5EB08
:10411000F739073DEA92528AB15FFB6B085D8D1F4C
:10412000A6F810111111813FD561C119A0012ABF54
:104130007DFEB157E31DC73EEB9C2B8AE6E55ABED8
:104140007CD5CF5A3AD9E53D6841000800000020EF
:104150001800000094330008804100081800002077
:1041600018380000A4330008000000000000000020
:10417000000000000000000000127A0000000000B3
:04000005080000BD32
:00000001FF
