:020000040800F2
:1000000018050020D100000821140008251300085D
:1000100000000000000000000000000000000000E0
:100020000000000000000000000000006B14000849
:100030000000000000000000691400086D140008B2
:10004000E3000008E3000008E3000008E300000804
:10005000E3000008E3000008E3000008E3000008F4
:10006000E3000008E3000008C5010008E300000801
:10007000E3000008E3000008E3000008E3000008D4
:10008000E3000008E3000008E3000008E3000008C4
:10009000E3000008E3000008E3000008E3000008B4
:1000A000E3000008E3000008E3000008A91A0008C4
:1000B000E3000008E3000008E30000080348854669
:1000C00000F03CF800480047D91A00081805002045
:1000D0000448804704480047FEE7FEE7FEE7FEE7E6
:1000E000FEE7FEE7D5140008BD00000830B50B465A
:1000F000014600202022012409E00D46D5409D4202
:1001000005D31D469540491B254695404019154687
:10011000521E002DF1DC30BDD2B201E00270401C55
:10012000491EFBD270470022F6E710B513460A4677
:1001300004461946FFF7F0FF204610BD064C012586
:10014000064E05E0E36807CC2B430C3C984710347F
:10015000B442F7D3FFF7B6FF80200008A0200008C4
:1001600010B5446A204600F08BF80120207110BDC4
:1001700010B5446A204600F064F80120207110BDDB
:1001800010B5446A2069042108432061204600F02C
:1001900079F80120207110BD10B5446A206904214E
:1001A00008432061204600F04EF80120207110BD68
:1001B00010B5406A00F065F810BD10B5406A00F057
:1001C00041F810BD10B5024800F084F910BD0000E0
:1001D000D000002010B5044600680C49884208D2BF
:1001E0000B4940181421FFF781FF80002064094863
:1001F00009E00649494240181421FFF777FF8000C3
:10020000206402480838E06310BD00000804024082
:10021000F8FFFDBF0000024030B5056C0124AC4082
:10022000C56B6C60046863604368102B036803D07F
:1002300099600068C26030BD9A600068C16030BDDE
:10024000704770477047704770B54379012B13D0E2
:10025000012545710223037106683468074B9340FA
:100260009C430B6849680B439340234333600571FB
:1002700000214171084670BD022070BDFE0F0000D4
:1002800070477047704770B5040004D0207900258E
:10029000002802D005E0012070BD6571204600F005
:1002A00007F802202071256101202071002070BD17
:1002B000F0B587B0054614216846FFF734FF2049A2
:1002C000286888423AD11F48C26941040A43C26182
:1002D000C2690A400592426909130A4342614069B2
:1002E0001027084000970590032001900026092060
:1002F00069460296C00600F09DF9144C1248A660AB
:1003000081C480204700A7606060C000E0602020BA
:10031000666120610D48083C00F02AF9002801D0F0
:10032000FFF78EFF08485030816A0F221202914376
:100330008162816A39438162AC60656207B0F0BD59
:10034000007400400010024030000240D000002045
:1003500070B54279012A12D0012242710223037141
:100360000468266815468D402E43266000290168E2
:1003700007D00C68A402240F0F2C0BD00DE0022034
:1003800070BD0B689B061B0F0F2B06D14B681343E8
:100390004B6002E04C681C434C60027100214171CB
:1003A000084670BDF8B50D460446944661790022B2
:1003B000069801291BD00121617102212171002DB4
:1003C00017D0E6682B49B162E6682B49F162E6680E
:1003D0002A49316321680E6801273F073E430E60BA
:1003E00000282CD004282DD0082830D12DE0022060
:1003F000F8BDA6682249B162A6682249F162A668E2
:100400002149316321680E6801273F033E430E6096
:10041000002804D0042805D0082808D105E0226867
:10042000083204E022680C3201E0226810322068B1
:1004300001680126760331430160A0680EE022685E
:10044000143204E02268183201E022681C3220686D
:1004500001680126760731430160E068614600F0DB
:10046000B3F821680A680120A84002430A6000200E
:100470006071F8BD71010008BB0100089901000816
:1004800061010008B10100088101000870B5002475
:10049000014620314A78022A03D0042181630124D5
:1004A00016E0026813680E25AB43136002681368F8
:1004B0005B085B0013600122056C1346AB40C56B03
:1004C0006B604A7000220A70416B002900D0884797
:1004D000204670BDF0B4C16B0D6801680C68042241
:1004E000066C1346B3402B420DD063070BD50B6847
:1004F0009B0602D40B6893430B60016C8A40C16B6E
:100500004A60C16A19E00227B74002462F40012322
:100510002032002F15D0A70713D50C68A40604D4E9
:100520000C680A25AC430C605370036C022199409F
:10053000C36B596000211170816A002916D0F0BC8C
:1005400008470827B7402F4210D024070ED50C6863
:100550000E25AC430C60046C1946A140C46B61606D
:100560008363537000211170016BE6E7F0BC7047A4
:1005700070B5040024D00220214620310D46487079
:10058000226811680F48A368014060682669184313
:10059000E3683343184363691843A3691843E36965
:1005A0001843084310602046FFF714FE0020A062A5
:1005B000E06220636063A06301216970287070BDF0
:1005C000012070BD0FC0FFFFF8B504468C462030F7
:1005D00001780025012909D00126067041780027FD
:1005E000012905D0077002252846F8BD0220F8BD74
:1005F00002214170A7632068016849084900016031
:1006000061462046FFF708FEE06A0028206801687E
:1006100002D00E22114306E00A2211430160206835
:100620000168042291430160206801683143016040
:10063000DAE70000F8B5002393E0224601249C404D
:10064000A44622407ED04C68022C01D0122C0CD142
:10065000DC08A40027183C6A5D07ED0E0F26AE40AB
:10066000B4430E69AE4026433E6205685E00032433
:10067000B4400F79A543BF07BF0FB7402F430760B2
:100680004D68012D05D0022D03D0112D01D0122D62
:100690000ED18568CF68A543B7402F438760476870
:1006A0006546AF430D79ED06ED0F9D403D43456036
:1006B000C568A5438C68B4402C43C4604C68E40012
:1006C0004ED52B4CA56901263543A561A4699D082B
:1006D00034400094274CAD002F19BC689D072E0FA5
:1006E0000F25B540AC430925ED06A84201D10025F0
:1006F00014E0214DA84201D101250FE01F4DA84271
:1007000001D102250AE01E4DA84201D1032505E0D2
:100710001C4DA84201D1042500E00525B540254324
:10072000BD60194C25684E689543F60300D5154306
:10073000256065684E689543B60300D5154365602E
:10074000A56800E00CE04E689543F60200D515431D
:10075000A560E5684E689543B60200D51543E5608F
:100760005B1C0A681446DA4000D066E7F8BD00005A
:10077000001002400000014000040048000800484A
:10078000000C0048001000480004014001480068C7
:10079000704700000400002002480168491C016005
:1007A000704700000400002010B5064801681022C0
:1007B00011430160002000F007F800F017F8002056
:1007C00010BD00000020024010B5044600F06AF998
:1007D0007D21C900FFF78AFC00F0AAFB0022214618
:1007E000501E00F021F8002010BD000008B5084898
:1007F0008169012211438161816911400091C269BF
:1008000001040A43C261C0690840009008BD0000AD
:1008100000100240C106C90E01208840014908604D
:100820007047000000E100E010B500F0FBFD10BDD6
:10083000F8B504460068434DC00352D5E869002668
:10084000C00007D4E96928040143E961E96901406E
:10085000012600913C480168C90510D40168821541
:1008600011430160FFF792FF074604E0FFF78EFF98
:10087000C01B642824D834480068C005F6D5286A0F
:1008800003273F02384020D06168394081421CD0A4
:10089000286A2A6AB843012109040A432A622A6A9B
:1008A0008A432A622862C0070FD0FFF76FFF0090CB
:1008B00008E0FFF76BFF0099411A2448814201D9F3
:1008C0000320F8BD286A8007F3D5286A6168B84319
:1008D00008432862002E04D0E869012109078843F3
:1008E000E8612078C00705D0286BA16880088000E7
:1008F000084328632078800706D5286B0321090464
:100900008843E168084328632068400306D5286BC4
:1009100003218904884321690843286320788006DD
:1009200005D5286B10218843616908432863208816
:10093000400505D5286B40218843A16908432863F9
:100940000020F8BD00100240007000408813000035
:10095000F8B505464E480E460068C007C00FB042C5
:100960000AD24B48016849084900314301600068D8
:10097000C007C00FB04270D12878464C800705D51B
:100980006068F0218843A968084360602878C00740
:1009900053D06868012817D0022818D0032819D02E
:1009A00021688907002958DA6168890889000143AC
:1009B0006160FFF7EBFE69680746012913D0022941
:1009C0001DD0032927D034E021688903EAE7216894
:1009D0008901E7E7616BC903E4E7FFF7D7FEC11BB5
:1009E0002D48814223D860680007800F0128F4D188
:1009F00023E0FFF7CBFEC11B2748814217D8606870
:100A00000007800F0228F4D117E0FFF7BFFEC11BDB
:100A1000214881420BD860680007800F0328F4D179
:100A20000BE0FFF7B3FEC11B1B48814201D9032035
:100A3000F8BD60680007800FF3D115480168C90749
:100A4000C90FB1420BD9016849084900314301601F
:100A50000068C007C00FB04201D00120F8BD28785F
:100A6000400706D56068072109028843E968084302
:100A7000606000F02DF86168084A0906090F515CB2
:100A8000C840074908600020FFF79EFE0020F8BD1F
:100A90000020024000100240881300006820000877
:100AA000080000200148006870470000080000208E
:100AB0000448054900684968044A4905490F515CE2
:100AC000C84070470800002000100240782000084D
:100AD00030B516A30FCB89B06C460FC417A30FCB4C
:100AE0000FC41A494A680C20144604401848042CC4
:100AF00005D0184B082C04D00C2C00D1184609B096
:100B000030BD9402240F6D462C5DC96A04AD0907FF
:100B1000090FD203695C920F022A02D0032A00D186
:100B20001846FFF7E3FA6043E9E700000203040513
:100B3000060708090A0B0C0D0E0F10100102030422
:100B400005060708090A0B0C0D0E0F1000100240D5
:100B500000127A00006CDC02FEB504460078F04E0C
:100B6000F04DC00748D068680007800F01281FD0EB
:100B700068680007800F022804D16868C003800FEE
:100B8000022815D06168012919D0012080040029AC
:100B900001D0052917D02968B1432960296881430C
:100BA0002960606800281BD0FFF7F0FD074613E0BE
:100BB0002868800320D56068002876D01CE028686B
:100BC00030432860EDE7296801432960F7E7FFF724
:100BD000DDFDC01B642869D828688003F7D50BE0C9
:100BE000FFF7D4FD074604E0FFF7D0FDC01B6428E3
:100BF000F1D828688003F7D4207880073ED568684C
:100C00000007800F14D068680007800F022804D105
:100C10006868C003800F01280AD0E06800282868AF
:100C20001DD0012108432860FFF7B0FD07460BE007
:100C3000286880070BD5E068012836D107E0FFF768
:100C4000A5FDC01B0228C6D828688007F7D52868EC
:100C5000F82188432169C900084328600EE0400854
:100C600040002860FFF792FD074604E0FFF78EFD85
:100C7000C01B0228AFD828688007F7D42078000767
:100C800024D5E0690028686A11D001210843686210
:100C9000FFF77CFD074604E0FFF778FDC01B022844
:100CA00099D8686A8007F7D510E036E1D1E04008AE
:100CB00040006862FFF76AFD074604E0FFF766FD43
:100CC000C01B022887D8686A8007F7D420780427D9
:100CD0004007002861DA00200190E869C00008D4CC
:100CE000E969B8060143E961E96901400120009121
:100CF00001908D480168C90511D40168821511431E
:100D00000160FFF743FD009005E0FFF73FFD00990C
:100D1000401A642897D884480068C005F5D5A068B3
:100D200001280AD0002801D0052811D0286A4008DF
:100D300040002862286AB84302E0286A012108437B
:100D40002862A068002812D0FFF720FD00900AE07A
:100D5000286A38432862F0E7FFF718FD0099411A26
:100D60007248814275D8286A8007F5D50DE0FFF7F3
:100D70000DFD009006E0FFF709FD0099411A6B4850
:100D8000814266D8286A8007F5D40198002804D0EB
:100D9000E969012000078143E9612078C00635D563
:100DA000606901280CD0401D686B24D0384368630B
:100DB000686B400840006863FFF7E8FC074622E0E4
:100DC000686B38436863686B012108436863FFF709
:100DD000DDFC074604E0FFF7D9FCC01B022838D829
:100DE000686B8007F7D5686BF8218843A169C90053
:100DF000084368630AE0B8436863F4E7FFF7C6FC9A
:100E0000C01B022825D8686B8007F7D4207880069D
:100E100037D568680007800F032813D0686800077B
:100E2000800F022804D16868C003800F032809D00E
:100E3000206A0028686B16D030436863FFF7A6FC71
:100E400006460CE0686BC0031BD5206A012864D1FC
:100E500017E05BE0FFF79AFC801B022856D8686B0E
:100E6000C003F7D50DE0B0436863FFF78FFC06467B
:100E700004E0FFF78BFC801B022847D8686BC00397
:100E8000F7D4606A002846D069680907890F0229EB
:100E900043D0012636060228286805D0B0432860D2
:100EA000FFF774FC044633E0B0432860FFF76EFCA4
:100EB000074604E0FFF76AFCC01B022826D8286812
:100EC0008001F7D4E86A216B000900010843E86259
:100ED000A16AE06A084369687B22D2039143084310
:100EE0006860286830432860FFF750FC044604E03F
:100EF000FFF74CFC001B022808D828688001F7D5B2
:100F000009E0FFF743FC001B022801D90320FEBDC6
:100F100028688001F5D40020FEBD0120FEBD000040
:100F20000000010000100240007000408813000023
:100F3000094910B5401E884201D9012010BD074C57
:100F400060610321081F00F06DFA0020A0610720F6
:100F50002061002010BD0000FFFFFF0000E000E066
:100F600070B502462032137F012B1BD0012313776B
:100F700002245477046865687026B5436560046888
:100F800065680E68354365600468A5688026B543CA
:100F9000A5600068846849680C438460537700202A
:100FA000107770BD022070BD70B5040005D02546D5
:100FB0002035687F002802D006E0012070BD0020A7
:100FC0002877204600F00AF802206877211D206863
:100FD00000F0AEFA01206877002070BD08B5006807
:100FE00001218907884207D10448C16901221143C0
:100FF000C161C0691040009008BD000000100240AF
:101000000222014620314A77026813680120034317
:101010001360487700207047F8B505460446203530
:10102000287F012817D001272F77022068772268B0
:1010300090687726FF23B0431B02984390600868AE
:10104000502837D00EDC202857D006DC00284ED0A0
:10105000102840D14EE00220F8BD302850D0402862
:1010600039D13CE060282DD0702817D0012212031E
:10107000801A0ED090422ED1CB684A6889682068C9
:1010800000F0A0FA20688168012292031143816078
:1010900021E020688168C908C900F8E7CB684A6880
:1010A0008968206800F08EFA21688868B043304370
:1010B000886010E0CA684968206800F096FA5021FC
:1010C000206806E0CA684968206800F09FFA60213D
:1010D000206800F082FA6F7700202877F8BDCA6890
:1010E0004968206800F081FA40212068F1E700217A
:1010F0002068EEE710212068EBE720212068E8E770
:1011000030212068E5E7704770470000F8B50368B4
:101110000446D869196805072D0F07D1820605D541
:101120008A0603D5204600F04DFBF8BD9A68002DD5
:1011300064D0D507ED0FFF2621360E402E435DD03B
:10114000C60706D0CE0504D501261E62E36E3343E2
:10115000E366870702230426002F06DAD70704D0A8
:1011600027683B62E76E3743E766470706D5D20735
:1011700004D022681662E26E1A43E266020709D5BD
:1011800020220A402A4305D0236808221A62E36E0F
:101190001343E366E26E002AC7D0800604D58806B2
:1011A00002D5204600F00EFBE06E000703D4206855
:1011B000806840061CD5204600F0E8FA2068816867
:1011C000490611D58168402291438160606E0028F4
:1011D0000AD01A494163606EFFF758F90028A4D07D
:1011E000606E416B8847F8BD2046FFF78DFFF8BD64
:1011F0002046FFF789FF0020E066F8BDC5020DD547
:1012000052020BD5012000051862202120466030D3
:10121000417281722046FFF776FFF8BD020605D5C0
:101220000A0603D5204600F0DBFBF8BD4006FCD5DE
:101230004806FAD5204600F0B8FAF8BD791700083C
:1012400070B5040005D025466035687A002802D0C4
:1012500006E0012070BD00202872204600F026F82C
:10126000242068722068016849084900016020460E
:1012700000F0E6FA0128EDD0606A002802D020468E
:1012800000F0D7F9206841680922D20291434160F9
:10129000206881682A2291438160206801680122C8
:1012A00011430160204600F029FA70BD10B586B0E8
:1012B000044614216846FEF736FF17492068884225
:1012C00027D116488269012189030A438261826914
:1012D0000A4005924269C9000A43426140690840D8
:1012E000059003204002009002200190002002900F
:1012F000032003900120049009206946C006FFF7EF
:1013000099F9002211461B20FFF78EFA1B20FFF7E8
:1013100081FA06B010BD0000003801400010024004
:1013200070477047FEE7000010B586B0142168468C
:10133000FEF7F9FE174842690121C9040A434261D8
:1013400042690A4005924269C9000A434261426902
:101350000A400592426949110A43426140690024EA
:1013600008400590081100900B48019069460294CE
:101370000A48FFF75FF90C2000900220019001203D
:1013800004900920029403946946C006FFF752F9BD
:1013900006B010BD001002400000211000080048F7
:1013A00010B586B0002400940121104801940294E5
:1013B000039404948907059401606421846041606A
:1013C00004610E218461C160FFF7EEFD012000037E
:1013D000009069460548FFF71FFE202004A911C1AF
:1013E00002480839FFF7BCFD06B010BD2000002000
:1013F00010B50A4808490160E12149024160002115
:101400008160C16001618161C1610C220162426140
:101410004162FFF715FF10BD003801406000002059
:10142000704700008307FF22DB0E9A408907090EF0
:10143000994000280BDA0007000F08388308084895
:101440009B001818C36993430B43C361704783081B
:1014500004489B001B1818689043084318607047A5
:1014600000ED00E000E400E07047704710B5FFF7C2
:1014700093F910BD70B598B034216846FEF753FE5D
:1014800000240D940E940F941C2111A81094FEF7C3
:101490004AFE02251020099504900095C0020A908A
:1014A00005200126C0040B9003960C966846FFF7B2
:1014B00053FB07200D900F9401210E9510940DA859
:1014C000FFF746FA11A811961394FFF7B1F918B077
:1014D00070BD00001248016801221143016041689B
:1014E000104A1140416001680F4A114001600168D3
:1014F000012292049143016041683F22120491430A
:101500004160C16A09090901C162016B074A1140C2
:101510000163416B490849004163002181607047C4
:10152000001002400CB8FF08FFFFF6FEACFEF0FF13
:10153000F0B502681D4B0124A4071D4D984203D04D
:10154000A04201D0A84203D17026B2434E68324374
:10155000184E194F98420DD0A0420BD0A84209D086
:10156000164CA04206D0B04204D0B84202D0144C6F
:10157000A04204D103242402A243CC682243802445
:10158000A2434C69224302608A68C2620A6882628E
:10159000984206D0B04204D0B84202D0084A9042E5
:1015A00001D10969016301214161F0BD002C0140B5
:1015B0000004004000400140004401400020004081
:1015C0000048014030B58468FF252D021B021343FB
:1015D000AC430B432343836030BD826870239A433E
:1015E0000A4307210A438260704730B5036A046AE0
:1015F0006408640004628469F025AC43120122434C
:101600000A24A3430B438261036230BD30B5036AF1
:101610001024A34303628469036A0F252D03120378
:10162000AC432243A024A343090119438261016210
:1016300030BD10B5818CC90707D001684A68012305
:101640005B049A43836A1A434A60818C890707D5F1
:1016500001684A6801231B049A43C36A1A434A601B
:10166000818C490707D501684A6801239B049A4386
:10167000036B1A434A60818C090707D501684A68E1
:101680000123DB039A43436B1A434A60818CC906EA
:1016900007D50268916801231B039943836B1943A3
:1016A0009160818C890607D501688A6801235B03F4
:1016B0009A43C36B1A438A60818C490612D503682A
:1016C0005A6801210905046C8A4322435A60026C5E
:1016D0008A4207D10268516803235B059943436C32
:1016E00019435160818C090607D501684A680123B6
:1016F000DB04806C9A4302434A6010BDF8B50025B4
:101700000446C566FFF742F8064617492068884236
:1017100005D01649884202D0154988421DD100687B
:10172000144F000709D50121334600224905204600
:10173000009700F088F900280DD120680068400764
:101740000BD501213346002289052046009700F081
:101750007AF9002801D00320F8BD2020603460729F
:10176000A07225720020F8BD0038014000440040FE
:1017700000480040FFFFFF0110B5406A002201460B
:1017800040314A834A82FFF7BFFC10BD01680A68F6
:10179000FF2321339A430A6001688A685208520085
:1017A0008A60202160308172704710B501680A6834
:1017B00040239A430A60202269210A54FFF7B1FDB1
:1017C000002010BD70B50246403203466033948B52
:1017D0009D7A0168222D05D088690822104388610E
:1017E000022070BD898C012685683603B54202D17E
:1017F0000569002D0BD02140446D651C45652170A5
:10180000518B491E0904090C518307D015E0456D21
:1018100021402980416D891C4165F1E701680A6812
:10182000FF242134A2430A6001688A6852085200EA
:101830008A6020219972FFF773FD002070BD0000BF
:10184000F8B504462369A268E5691A436369102064
:101850002B43002125681A432B680E46544F3B400A
:1018600013432B6023685A6803252D03AA43E568B8
:101870002A435A60236AA26925681A43AB680B277A
:101880003F02BB431343AB604A4F25684A4B0203F8
:10189000BD420AD11B6B9B079B0F3AD0012B25D071
:1018A000022B25D0032B35D11EE0444FBD420AD177
:1018B0001B6B03273F043B402BD09B1A16D09B1A6F
:1018C00016D09B1A0EE03E4FBD4213D11F6B03236F
:1018D0009B041F401DD001239B04FF1A06D0FF1A52
:1018E00006D0FB1A002B15D1022013E0042011E0D2
:1018F00008200FE0334B9D420BD0334B9D4208D064
:10190000324B9D4205D0324B9D4202D0314B9D421D
:1019100000D100200123E769DB039F4222D1002888
:101920000CD002280DD0042813D0082817D0012687
:101930000A0912010807400F10432EE0FFF7B8F81C
:1019400009E06168244A48088018FEF7CFFB81B29D
:10195000EEE7FFF7BDF8616840004A08F4E7616808
:101960004808F1E7002808D0022809D004280CD044
:10197000082815D001263046F8BDFFF799F806E093
:101980006168164A480880180DE0FFF7A1F8616801
:101990004A088018FEF7AAFB80B22168C860EAE70F
:1019A00061684808C018FEF7A1FB80B2E860E2E772
:1019B000F369FFEF0038014000100240004400408E
:1019C00000480040004C004000500040001401401E
:1019D00000180140001C01400024F40000127A00AD
:1019E0006921095C212901D002207047024640325A
:1019F000518A002912D0012381681B03994202D128
:101A00000169002915D0C16C4B1CC36400680978BA
:101A10000185508A401E50820020704701680A6884
:101A200080239A430A6000680168402211430160E4
:101A3000F2E7C16C03680988C905C90D1985C16C35
:101A4000891CC164E5E7FFB581B017460E46044620
:101A50000A9D1DE0681C1BD0002D05D0FEF796FEE8
:101A60000499401AA84213D920680168FF22A132C4
:101A70009143016020688168490849008160202005
:101A800060346072A07200202072032005B0F0BDA7
:101A90002068C1693046884304D00020B842D9D0BC
:101AA0000020F3E70120F9E710B50248FFF72EFB0D
:101AB00010BD00006000002002E008C8121F08C12D
:101AC000002AFAD170477047002001E001C1121FBF
:101AD000002AFBD1704700001CB5FEF765FEFFF73A
:101AE000C9FCFFF721FC1B484169012211434161F8
:101AF000406910400022009011460A20FEF794FE33
:101B00000A20FEF787FE002414490094124801942D
:101B100008600846FEF7B7FB2420009000226946C3
:101B200001940E48FEF790FBFFF73AFCFFF760FCCC
:101B30000A481430FFF764FA00210848FEF708FC51
:101B4000074800940368074A00210448FEF72AFC6E
:101B5000FEE7000000100240007400400C0000206E
:101B600000000020681B0008000006000C001300A5
:101B700019001F0026002C00330039003F004600EA
:101B80004C00530059005F0066006C007300790040
:101B90007F0086008C00930099009F00A600AC0097
:101BA000B300B900BF00C600CC00D300D900DF00ED
:101BB000E600EC00F300F900FF0006010C01130140
:101BC00019011F0126012C01330139013F01460192
:101BD0004C01530159015F0166016C0173017901E8
:101BE0007F0186018C01930199019F01A601AC013F
:101BF000B301B901BF01C601CC01D301D901DF0195
:101C0000E601EC01F301F901FF0106020C021302E7
:101C100019021F0226022C02330239023F02460239
:101C20004C02530259025F0266026C02730279028F
:101C30007F0286028C02930299029F02A602AC02E6
:101C4000B302B902BF02C602CC02D302D902DF023C
:101C5000E602EC02F302F902FF0206030C0313038F
:101C600019031F0326032C03330339033F034603E1
:101C70004C03520359035F0366036C037203790339
:101C80007F0386038C03920399039F03A603AC038F
:101C9000B203B903BF03C603CC03D203D903DF03E6
:101CA000E603EC03F203F903FF0306040C04120439
:101CB00019041F0426042C04320439043F0446048A
:101CC0004C04520459045F0466046C0472047904E1
:101CD0007F0486048C04920499049F04A604AC0437
:101CE000B204B904BF04C604CC04D204D904DF048E
:101CF000E604EC04F204F904FF0406050C051205E1
:101D000019051F0526052C05320539053F05460531
:101D10004C05520559055F0566056C057205790588
:101D20007F0586058C05920599059F05A605AC05DE
:101D3000B205B905BF05C605CC05D205D905DF0535
:101D4000E605EC05F205F905FF0506060C06120688
:101D500019061F0626062C06320639063F064606D9
:101D60004C06520659065F0666066C067206790630
:101D70007F0685068C06920699069F06A506AC0688
:101D8000B206B906BF06C506CC06D206D906DF06DE
:101D9000E506EC06F206F906FF0605070C07120732
:101DA00019071F0725072C07320739073F07450783
:101DB0004C07520759075F0765076C0772077907D9
:101DC0007F0785078C07920799079F07A507AC0730
:101DD000B207B907BF07C507CC07D207D907DF0786
:101DE000E507EC07F207F907FF0705080C081208DA
:101DF00019081F0825082C08320839083F0845082B
:101E00004C08520859085F0865086C087208790880
:101E10007F0885088C08920899089F08A508AC08D7
:101E2000B208B908BF08C508CC08D208D908DF082D
:101E3000E508EC08F208F908FF0805090C09120981
:101E400019091F0925092C09320939093F094509D2
:101E50004C09520959095F0965096C097209790928
:101E60007F0985098C09920999099F09A509AC097F
:101E7000B209B809BF09C509CC09D209D809DF09D7
:101E8000E509EC09F209F809FF09050A0C0A120A2A
:101E9000180A1F0A250A2C0A320A380A3F0A450A7C
:101EA0004C0A520A580A5F0A650A6C0A720A780AD2
:101EB0007F0A850A8C0A920A980A9F0AA50AAC0A28
:101EC000B20AB80ABF0AC50ACC0AD20AD80ADF0A7F
:101ED000E50AEC0AF20AF80AFF0A050B0C0B120BD2
:101EE000180B1F0B250B2C0B320B380B3F0B450B24
:101EF0004C0B520B580B5F0B650B6C0B720B780B7A
:101F00007F0B850B8C0B920B980B9F0BA50BAC0BCF
:101F1000B20BB80BBF0BC50BCC0BD20BD80BDF0B26
:101F2000E50BEC0BF20BF80BFF0B050C0C0C120C79
:101F3000180C1F0C250C2C0C320C380C3F0C450CCB
:101F40004C0C520C580C5F0C650C6C0C720C780C21
:101F50007F0C850C8C0C920C980C9F0CA50CAC0C77
:101F6000B20CB80CBF0CC50CCC0CD20CD80CDF0CCE
:101F7000E50CEB0CF20CF80CFF0C050D0B0D120D23
:101F8000180D1F0D250D2B0D320D380D3F0D450D74
:101F90004B0D520D580D5F0D650D6B0D720D780DCB
:101FA0007F0D850D8B0D920D980D9F0DA50DAB0D21
:101FB000B20DB80DBF0DC50DCB0DD20DD80DDF0D77
:101FC000E50DEB0DF20DF80DFF0D050E0B0E120ECB
:101FD000180E1F0E250E2B0E320E380E3F0E450E1C
:101FE0004B0E520E580E5F0E650E6B0E720E780E73
:101FF0007F0E850E8B0E920E980E9F0EA50EAB0EC9
:10200000B20EB80EBF0EC50ECB0ED20ED80EDF0E1E
:10201000E50EEB0EF20EF80EFF0E050F0B0F120F72
:10202000180F1F0F250F2B0F320F380F3F0F450FC3
:102030004B0F520F580F5F0F650F6B0F720F780F1A
:102040007F0F850F8B0F920F980F9F0FA50FAB0F70
:10205000B20FB80FBF0FC50FCB0FD20FD80FDF0FC6
:10206000E50FEB0FF20FF80F00000000000000007A
:10207000010203040607080900000000010203042E
:10208000A0200008000000200C000000B81A000882
:10209000AC2000080C0000200C050000C81A000845
:0C20A000800200000000000000127A0026
:04000005080000BD32
:00000001FF
